{
  "contractName": "EvidenceRoom",
  "abi": [
    {
      "inputs": [
        {
          "internalType": "address",
          "name": "_userControlAddress",
          "type": "address"
        }
      ],
      "stateMutability": "nonpayable",
      "type": "constructor"
    },
    {
      "anonymous": false,
      "inputs": [
        {
          "indexed": false,
          "internalType": "uint256",
          "name": "caseID",
          "type": "uint256"
        },
        {
          "indexed": true,
          "internalType": "uint256",
          "name": "evidenceId",
          "type": "uint256"
        },
        {
          "indexed": false,
          "internalType": "string",
          "name": "crimeDescription",
          "type": "string"
        },
        {
          "indexed": false,
          "internalType": "string",
          "name": "evidenceType",
          "type": "string"
        },
        {
          "indexed": false,
          "internalType": "string",
          "name": "crimeTime",
          "type": "string"
        },
        {
          "indexed": false,
          "internalType": "string",
          "name": "officer",
          "type": "string"
        },
        {
          "indexed": false,
          "internalType": "string",
          "name": "department",
          "type": "string"
        },
        {
          "indexed": false,
          "internalType": "address",
          "name": "evidenceRoomOfficer",
          "type": "address"
        },
        {
          "indexed": false,
          "internalType": "string",
          "name": "purpose",
          "type": "string"
        },
        {
          "indexed": false,
          "internalType": "string",
          "name": "place",
          "type": "string"
        },
        {
          "indexed": false,
          "internalType": "string",
          "name": "entryTime",
          "type": "string"
        },
        {
          "indexed": false,
          "internalType": "string",
          "name": "exitTime",
          "type": "string"
        },
        {
          "indexed": false,
          "internalType": "uint256",
          "name": "creationTime",
          "type": "uint256"
        }
      ],
      "name": "EvidenceLogged",
      "type": "event"
    },
    {
      "inputs": [],
      "name": "accessRoom",
      "outputs": [
        {
          "internalType": "contract UserControl",
          "name": "",
          "type": "address"
        }
      ],
      "stateMutability": "view",
      "type": "function",
      "constant": true
    },
    {
      "inputs": [],
      "name": "exitIndex",
      "outputs": [
        {
          "internalType": "uint256",
          "name": "",
          "type": "uint256"
        }
      ],
      "stateMutability": "view",
      "type": "function",
      "constant": true
    },
    {
      "inputs": [],
      "name": "indexx",
      "outputs": [
        {
          "internalType": "uint256",
          "name": "",
          "type": "uint256"
        }
      ],
      "stateMutability": "view",
      "type": "function",
      "constant": true
    },
    {
      "inputs": [],
      "name": "inventoIndex",
      "outputs": [
        {
          "internalType": "uint256",
          "name": "",
          "type": "uint256"
        }
      ],
      "stateMutability": "view",
      "type": "function",
      "constant": true
    },
    {
      "inputs": [],
      "name": "result",
      "outputs": [
        {
          "internalType": "uint256",
          "name": "",
          "type": "uint256"
        }
      ],
      "stateMutability": "view",
      "type": "function",
      "constant": true
    },
    {
      "inputs": [],
      "name": "result1",
      "outputs": [
        {
          "internalType": "uint256",
          "name": "",
          "type": "uint256"
        }
      ],
      "stateMutability": "view",
      "type": "function",
      "constant": true
    },
    {
      "inputs": [
        {
          "internalType": "uint256",
          "name": "_caseID",
          "type": "uint256"
        },
        {
          "internalType": "uint256",
          "name": "_evidenceID",
          "type": "uint256"
        },
        {
          "internalType": "string",
          "name": "_crimeDescription",
          "type": "string"
        },
        {
          "internalType": "string",
          "name": "_evidenceType",
          "type": "string"
        },
        {
          "internalType": "string",
          "name": "_crimeTime",
          "type": "string"
        },
        {
          "internalType": "string",
          "name": "_officer",
          "type": "string"
        },
        {
          "internalType": "string",
          "name": "_department",
          "type": "string"
        },
        {
          "internalType": "string",
          "name": "_purpose",
          "type": "string"
        },
        {
          "internalType": "string",
          "name": "_place",
          "type": "string"
        },
        {
          "internalType": "string",
          "name": "_entryTime",
          "type": "string"
        },
        {
          "internalType": "string",
          "name": "_exitTime",
          "type": "string"
        }
      ],
      "name": "addEntryLog",
      "outputs": [],
      "stateMutability": "nonpayable",
      "type": "function"
    },
    {
      "inputs": [
        {
          "internalType": "uint256",
          "name": "year1",
          "type": "uint256"
        },
        {
          "internalType": "uint256",
          "name": "month1",
          "type": "uint256"
        },
        {
          "internalType": "uint256",
          "name": "day1",
          "type": "uint256"
        },
        {
          "internalType": "uint256",
          "name": "year",
          "type": "uint256"
        },
        {
          "internalType": "uint256",
          "name": "month",
          "type": "uint256"
        },
        {
          "internalType": "uint256",
          "name": "day",
          "type": "uint256"
        }
      ],
      "name": "logsDate",
      "outputs": [],
      "stateMutability": "nonpayable",
      "type": "function"
    },
    {
      "inputs": [],
      "name": "getLogsByDate",
      "outputs": [
        {
          "components": [
            {
              "internalType": "uint256",
              "name": "caseID",
              "type": "uint256"
            },
            {
              "internalType": "uint256",
              "name": "evidenceID",
              "type": "uint256"
            },
            {
              "internalType": "string",
              "name": "crimeDescription",
              "type": "string"
            },
            {
              "internalType": "string",
              "name": "evidenceType",
              "type": "string"
            },
            {
              "internalType": "string",
              "name": "crimeTime",
              "type": "string"
            },
            {
              "internalType": "string",
              "name": "officer",
              "type": "string"
            },
            {
              "internalType": "string",
              "name": "department",
              "type": "string"
            },
            {
              "internalType": "address",
              "name": "evidenceRoomOfficer",
              "type": "address"
            },
            {
              "internalType": "string",
              "name": "purpose",
              "type": "string"
            },
            {
              "internalType": "string",
              "name": "place",
              "type": "string"
            },
            {
              "internalType": "string",
              "name": "entryTime",
              "type": "string"
            },
            {
              "internalType": "string",
              "name": "exitTime",
              "type": "string"
            },
            {
              "internalType": "uint256",
              "name": "creationTime",
              "type": "uint256"
            }
          ],
          "internalType": "struct EvidenceRoom.evidenceLog[]",
          "name": "",
          "type": "tuple[]"
        }
      ],
      "stateMutability": "view",
      "type": "function",
      "constant": true
    },
    {
      "inputs": [
        {
          "internalType": "uint256",
          "name": "_crimeID",
          "type": "uint256"
        }
      ],
      "name": "logsByCrime",
      "outputs": [
        {
          "components": [
            {
              "internalType": "uint256",
              "name": "caseID",
              "type": "uint256"
            },
            {
              "internalType": "uint256",
              "name": "evidenceID",
              "type": "uint256"
            },
            {
              "internalType": "string",
              "name": "crimeDescription",
              "type": "string"
            },
            {
              "internalType": "string",
              "name": "evidenceType",
              "type": "string"
            },
            {
              "internalType": "string",
              "name": "crimeTime",
              "type": "string"
            },
            {
              "internalType": "string",
              "name": "officer",
              "type": "string"
            },
            {
              "internalType": "string",
              "name": "department",
              "type": "string"
            },
            {
              "internalType": "address",
              "name": "evidenceRoomOfficer",
              "type": "address"
            },
            {
              "internalType": "string",
              "name": "purpose",
              "type": "string"
            },
            {
              "internalType": "string",
              "name": "place",
              "type": "string"
            },
            {
              "internalType": "string",
              "name": "entryTime",
              "type": "string"
            },
            {
              "internalType": "string",
              "name": "exitTime",
              "type": "string"
            },
            {
              "internalType": "uint256",
              "name": "creationTime",
              "type": "uint256"
            }
          ],
          "internalType": "struct EvidenceRoom.evidenceLog[]",
          "name": "",
          "type": "tuple[]"
        }
      ],
      "stateMutability": "view",
      "type": "function",
      "constant": true
    },
    {
      "inputs": [
        {
          "internalType": "uint256",
          "name": "_roomNumber",
          "type": "uint256"
        },
        {
          "internalType": "uint256",
          "name": "_crimeID",
          "type": "uint256"
        },
        {
          "internalType": "uint256",
          "name": "_evidenceCount",
          "type": "uint256"
        }
      ],
      "name": "Inventory",
      "outputs": [],
      "stateMutability": "nonpayable",
      "type": "function"
    },
    {
      "inputs": [
        {
          "internalType": "uint256",
          "name": "_crimeId",
          "type": "uint256"
        }
      ],
      "name": "deleteInventory",
      "outputs": [],
      "stateMutability": "nonpayable",
      "type": "function"
    },
    {
      "inputs": [
        {
          "internalType": "string",
          "name": "_name",
          "type": "string"
        },
        {
          "internalType": "address",
          "name": "_wallet",
          "type": "address"
        },
        {
          "internalType": "string",
          "name": "_time",
          "type": "string"
        },
        {
          "internalType": "string",
          "name": "_crimeID",
          "type": "string"
        }
      ],
      "name": "addExitLog",
      "outputs": [],
      "stateMutability": "nonpayable",
      "type": "function"
    },
    {
      "inputs": [],
      "name": "viewLogs",
      "outputs": [
        {
          "components": [
            {
              "internalType": "uint256",
              "name": "caseID",
              "type": "uint256"
            },
            {
              "internalType": "uint256",
              "name": "evidenceID",
              "type": "uint256"
            },
            {
              "internalType": "string",
              "name": "crimeDescription",
              "type": "string"
            },
            {
              "internalType": "string",
              "name": "evidenceType",
              "type": "string"
            },
            {
              "internalType": "string",
              "name": "crimeTime",
              "type": "string"
            },
            {
              "internalType": "string",
              "name": "officer",
              "type": "string"
            },
            {
              "internalType": "string",
              "name": "department",
              "type": "string"
            },
            {
              "internalType": "address",
              "name": "evidenceRoomOfficer",
              "type": "address"
            },
            {
              "internalType": "string",
              "name": "purpose",
              "type": "string"
            },
            {
              "internalType": "string",
              "name": "place",
              "type": "string"
            },
            {
              "internalType": "string",
              "name": "entryTime",
              "type": "string"
            },
            {
              "internalType": "string",
              "name": "exitTime",
              "type": "string"
            },
            {
              "internalType": "uint256",
              "name": "creationTime",
              "type": "uint256"
            }
          ],
          "internalType": "struct EvidenceRoom.evidenceLog[]",
          "name": "",
          "type": "tuple[]"
        }
      ],
      "stateMutability": "view",
      "type": "function",
      "constant": true
    },
    {
      "inputs": [],
      "name": "viewExitLogs",
      "outputs": [
        {
          "components": [
            {
              "internalType": "string",
              "name": "name",
              "type": "string"
            },
            {
              "internalType": "address",
              "name": "wallet",
              "type": "address"
            },
            {
              "internalType": "string",
              "name": "time",
              "type": "string"
            },
            {
              "internalType": "string",
              "name": "crimeID",
              "type": "string"
            }
          ],
          "internalType": "struct EvidenceRoom.exitLog[]",
          "name": "",
          "type": "tuple[]"
        }
      ],
      "stateMutability": "view",
      "type": "function",
      "constant": true
    },
    {
      "inputs": [],
      "name": "viewInventories",
      "outputs": [
        {
          "components": [
            {
              "internalType": "uint256",
              "name": "roomNumber",
              "type": "uint256"
            },
            {
              "internalType": "uint256",
              "name": "crimeId",
              "type": "uint256"
            },
            {
              "internalType": "uint256",
              "name": "evidenceCount",
              "type": "uint256"
            }
          ],
          "internalType": "struct EvidenceRoom.inventor[]",
          "name": "",
          "type": "tuple[]"
        }
      ],
      "stateMutability": "view",
      "type": "function",
      "constant": true
    }
  ],
  "bytecode": "0x60806040526000600755600060085560006009553480156200002057600080fd5b5060405162003833380380620038338339818101604052810190620000469190620000f8565b80600360006101000a81548173ffffffffffffffffffffffffffffffffffffffff021916908373ffffffffffffffffffffffffffffffffffffffff160217905550506200012a565b600080fd5b600073ffffffffffffffffffffffffffffffffffffffff82169050919050565b6000620000c08262000093565b9050919050565b620000d281620000b3565b8114620000de57600080fd5b50565b600081519050620000f281620000c7565b92915050565b6000602082840312156200011157620001106200008e565b5b60006200012184828501620000e1565b91505092915050565b6136f9806200013a6000396000f3fe608060405234801561001057600080fd5b50600436106101005760003560e01c80637f86c81f1161009757806398b63bc81161006657806398b63bc814610275578063bda4a63114610293578063cd85d026146102b1578063d55cf373146102cf57610100565b80637f86c81f1461020557806380f1e3201461022157806381213ef51461023d5780638b7b49431461025957610100565b806365372147116100d3578063653721471461018d578063719a09fb146101ab5780637348ec78146101c95780637f50bbe5146101e757610100565b80630ea9bf921461010557806334cde744146101215780634b0f0f841461013f57806360d108131461016f575b600080fd5b61011f600480360381019061011a9190612423565b6102ed565b005b6101296103a0565b604051610136919061245f565b60405180910390f35b61015960048036038101906101549190612423565b6103a6565b6040516101669190612776565b60405180910390f35b610177610a7a565b604051610184919061245f565b60405180910390f35b610195610a80565b6040516101a2919061245f565b60405180910390f35b6101b3610a86565b6040516101c091906127f7565b60405180910390f35b6101d1610aac565b6040516101de919061245f565b60405180910390f35b6101ef610ab2565b6040516101fc9190612945565b60405180910390f35b61021f600480360381019061021a9190612967565b610d7e565b005b61023b600480360381019061023691906129f4565b610da8565b005b61025760048036038101906102529190612ba8565b610e16565b005b610273600480360381019061026e9190612c63565b610f21565b005b61027d6112f6565b60405161028a9190612776565b60405180910390f35b61029b61194d565b6040516102a8919061245f565b60405180910390f35b6102b9611953565b6040516102c69190612f44565b60405180910390f35b6102d7611a31565b6040516102e49190612776565b60405180910390f35b60005b60085481101561039c57816005600083815260200190815260200160002060010154036103895760056000600160085461032a9190612f95565b8152602001908152602001600020600560008381526020019081526020016000206000820154816000015560018201548160010155600282015481600201559050506008600081548092919061037f90612fc9565b919050555061039c565b808061039490612ff2565b9150506102f0565b5050565b60085481565b60606000805b6007548110156103f557836004600083815260200190815260200160002060000154036103e25781806103de90612ff2565b9250505b80806103ed90612ff2565b9150506103ac565b5060008167ffffffffffffffff81111561041257610411612a51565b5b60405190808252806020026020018201604052801561044b57816020015b610438612259565b8152602001906001900390816104305790505b5090506000805b600754811015610a6e5785600460008381526020019081526020016000206000015403610a5b5760046000828152602001908152602001600020604051806101a001604052908160008201548152602001600182015481526020016002820180546104bc90613069565b80601f01602080910402602001604051908101604052809291908181526020018280546104e890613069565b80156105355780601f1061050a57610100808354040283529160200191610535565b820191906000526020600020905b81548152906001019060200180831161051857829003601f168201915b5050505050815260200160038201805461054e90613069565b80601f016020809104026020016040519081016040528092919081815260200182805461057a90613069565b80156105c75780601f1061059c576101008083540402835291602001916105c7565b820191906000526020600020905b8154815290600101906020018083116105aa57829003601f168201915b505050505081526020016004820180546105e090613069565b80601f016020809104026020016040519081016040528092919081815260200182805461060c90613069565b80156106595780601f1061062e57610100808354040283529160200191610659565b820191906000526020600020905b81548152906001019060200180831161063c57829003601f168201915b5050505050815260200160058201805461067290613069565b80601f016020809104026020016040519081016040528092919081815260200182805461069e90613069565b80156106eb5780601f106106c0576101008083540402835291602001916106eb565b820191906000526020600020905b8154815290600101906020018083116106ce57829003601f168201915b5050505050815260200160068201805461070490613069565b80601f016020809104026020016040519081016040528092919081815260200182805461073090613069565b801561077d5780601f106107525761010080835404028352916020019161077d565b820191906000526020600020905b81548152906001019060200180831161076057829003601f168201915b505050505081526020016007820160009054906101000a900473ffffffffffffffffffffffffffffffffffffffff1673ffffffffffffffffffffffffffffffffffffffff1673ffffffffffffffffffffffffffffffffffffffff1681526020016008820180546107ec90613069565b80601f016020809104026020016040519081016040528092919081815260200182805461081890613069565b80156108655780601f1061083a57610100808354040283529160200191610865565b820191906000526020600020905b81548152906001019060200180831161084857829003601f168201915b5050505050815260200160098201805461087e90613069565b80601f01602080910402602001604051908101604052809291908181526020018280546108aa90613069565b80156108f75780601f106108cc576101008083540402835291602001916108f7565b820191906000526020600020905b8154815290600101906020018083116108da57829003601f168201915b50505050508152602001600a8201805461091090613069565b80601f016020809104026020016040519081016040528092919081815260200182805461093c90613069565b80156109895780601f1061095e57610100808354040283529160200191610989565b820191906000526020600020905b81548152906001019060200180831161096c57829003601f168201915b50505050508152602001600b820180546109a290613069565b80601f01602080910402602001604051908101604052809291908181526020018280546109ce90613069565b8015610a1b5780601f106109f057610100808354040283529160200191610a1b565b820191906000526020600020905b8154815290600101906020018083116109fe57829003601f168201915b50505050508152602001600c82015481525050838381518110610a4157610a4061309a565b5b60200260200101819052508180610a5790612ff2565b9250505b8080610a6690612ff2565b915050610452565b50819350505050919050565b60025481565b60015481565b600360009054906101000a900473ffffffffffffffffffffffffffffffffffffffff1681565b60095481565b6060600060095467ffffffffffffffff811115610ad257610ad1612a51565b5b604051908082528060200260200182016040528015610b0b57816020015b610af86122d7565b815260200190600190039081610af05790505b50905060005b600954811015610d765760066000828152602001908152602001600020604051806080016040529081600082018054610b4990613069565b80601f0160208091040260200160405190810160405280929190818152602001828054610b7590613069565b8015610bc25780601f10610b9757610100808354040283529160200191610bc2565b820191906000526020600020905b815481529060010190602001808311610ba557829003601f168201915b505050505081526020016001820160009054906101000a900473ffffffffffffffffffffffffffffffffffffffff1673ffffffffffffffffffffffffffffffffffffffff1673ffffffffffffffffffffffffffffffffffffffff168152602001600282018054610c3190613069565b80601f0160208091040260200160405190810160405280929190818152602001828054610c5d90613069565b8015610caa5780601f10610c7f57610100808354040283529160200191610caa565b820191906000526020600020905b815481529060010190602001808311610c8d57829003601f168201915b50505050508152602001600382018054610cc390613069565b80601f0160208091040260200160405190810160405280929190818152602001828054610cef90613069565b8015610d3c5780601f10610d1157610100808354040283529160200191610d3c565b820191906000526020600020905b815481529060010190602001808311610d1f57829003601f168201915b505050505081525050828281518110610d5857610d5761309a565b5b60200260200101819052508080610d6e90612ff2565b915050610b11565b508091505090565b610d89868686611a46565b600181905550610d9a838383611a46565b600281905550505050505050565b60405180606001604052808481526020018381526020018281525060056000600854815260200190815260200160002060008201518160000155602082015181600101556040820151816002015590505060086000815480929190610e0c90612ff2565b9190505550505050565b60405180608001604052808581526020018473ffffffffffffffffffffffffffffffffffffffff168152602001838152602001828152506006600060095481526020019081526020016000206000820151816000019080519060200190610e7e929190612315565b5060208201518160010160006101000a81548173ffffffffffffffffffffffffffffffffffffffff021916908373ffffffffffffffffffffffffffffffffffffffff1602179055506040820151816002019080519060200190610ee2929190612315565b506060820151816003019080519060200190610eff929190612315565b5090505060096000815480929190610f1690612ff2565b919050555050505050565b600360009054906101000a900473ffffffffffffffffffffffffffffffffffffffff1673ffffffffffffffffffffffffffffffffffffffff166391d14854600360009054906101000a900473ffffffffffffffffffffffffffffffffffffffff1673ffffffffffffffffffffffffffffffffffffffff1663533530416040518163ffffffff1660e01b8152600401602060405180830381865afa158015610fcc573d6000803e3d6000fd5b505050506040513d601f19601f82011682018060405250810190610ff091906130ff565b336040518363ffffffff1660e01b815260040161100e92919061314a565b602060405180830381865afa15801561102b573d6000803e3d6000fd5b505050506040513d601f19601f8201168201806040525081019061104f91906131ab565b61108e576040517f08c379a000000000000000000000000000000000000000000000000000000000815260040161108590613235565b60405180910390fd5b604051806101a001604052808c81526020018b81526020018a81526020018981526020018881526020018781526020018681526020013373ffffffffffffffffffffffffffffffffffffffff1681526020018581526020018481526020018381526020018281526020014281525060046000600754815260200190815260200160002060008201518160000155602082015181600101556040820151816002019080519060200190611141929190612315565b50606082015181600301908051906020019061115e929190612315565b50608082015181600401908051906020019061117b929190612315565b5060a0820151816005019080519060200190611198929190612315565b5060c08201518160060190805190602001906111b5929190612315565b5060e08201518160070160006101000a81548173ffffffffffffffffffffffffffffffffffffffff021916908373ffffffffffffffffffffffffffffffffffffffff16021790555061010082015181600801908051906020019061121a929190612315565b50610120820151816009019080519060200190611238929190612315565b5061014082015181600a019080519060200190611256929190612315565b5061016082015181600b019080519060200190611274929190612315565b5061018082015181600c01559050506007600081548092919061129690612ff2565b9190505550897f2e6306c566e4c19350f667efdf078a8ff8d2d08ce775d7f37ff9273a2d02d6378c8b8b8b8b8b338c8c8c8c426040516112e19c9b9a9998979695949392919061328e565b60405180910390a25050505050505050505050565b6060600060075467ffffffffffffffff81111561131657611315612a51565b5b60405190808252806020026020018201604052801561134f57816020015b61133c612259565b8152602001906001900390816113345790505b50905060005b6007548110156119455760046000828152602001908152602001600020604051806101a001604052908160008201548152602001600182015481526020016002820180546113a290613069565b80601f01602080910402602001604051908101604052809291908181526020018280546113ce90613069565b801561141b5780601f106113f05761010080835404028352916020019161141b565b820191906000526020600020905b8154815290600101906020018083116113fe57829003601f168201915b5050505050815260200160038201805461143490613069565b80601f016020809104026020016040519081016040528092919081815260200182805461146090613069565b80156114ad5780601f10611482576101008083540402835291602001916114ad565b820191906000526020600020905b81548152906001019060200180831161149057829003601f168201915b505050505081526020016004820180546114c690613069565b80601f01602080910402602001604051908101604052809291908181526020018280546114f290613069565b801561153f5780601f106115145761010080835404028352916020019161153f565b820191906000526020600020905b81548152906001019060200180831161152257829003601f168201915b5050505050815260200160058201805461155890613069565b80601f016020809104026020016040519081016040528092919081815260200182805461158490613069565b80156115d15780601f106115a6576101008083540402835291602001916115d1565b820191906000526020600020905b8154815290600101906020018083116115b457829003601f168201915b505050505081526020016006820180546115ea90613069565b80601f016020809104026020016040519081016040528092919081815260200182805461161690613069565b80156116635780601f1061163857610100808354040283529160200191611663565b820191906000526020600020905b81548152906001019060200180831161164657829003601f168201915b505050505081526020016007820160009054906101000a900473ffffffffffffffffffffffffffffffffffffffff1673ffffffffffffffffffffffffffffffffffffffff1673ffffffffffffffffffffffffffffffffffffffff1681526020016008820180546116d290613069565b80601f01602080910402602001604051908101604052809291908181526020018280546116fe90613069565b801561174b5780601f106117205761010080835404028352916020019161174b565b820191906000526020600020905b81548152906001019060200180831161172e57829003601f168201915b5050505050815260200160098201805461176490613069565b80601f016020809104026020016040519081016040528092919081815260200182805461179090613069565b80156117dd5780601f106117b2576101008083540402835291602001916117dd565b820191906000526020600020905b8154815290600101906020018083116117c057829003601f168201915b50505050508152602001600a820180546117f690613069565b80601f016020809104026020016040519081016040528092919081815260200182805461182290613069565b801561186f5780601f106118445761010080835404028352916020019161186f565b820191906000526020600020905b81548152906001019060200180831161185257829003601f168201915b50505050508152602001600b8201805461188890613069565b80601f01602080910402602001604051908101604052809291908181526020018280546118b490613069565b80156119015780601f106118d657610100808354040283529160200191611901565b820191906000526020600020905b8154815290600101906020018083116118e457829003601f168201915b50505050508152602001600c820154815250508282815181106119275761192661309a565b5b6020026020010181905250808061193d90612ff2565b915050611355565b508091505090565b60075481565b6060600060085467ffffffffffffffff81111561197357611972612a51565b5b6040519080825280602002602001820160405280156119ac57816020015b61199961239b565b8152602001906001900390816119915790505b50905060005b600854811015611a2957600560008281526020019081526020016000206040518060600160405290816000820154815260200160018201548152602001600282015481525050828281518110611a0b57611a0a61309a565b5b60200260200101819052508080611a2190612ff2565b9150506119b2565b508091505090565b6060611a41600154600254611a6a565b905090565b600062015180611a578585856120fa565b611a619190613387565b90509392505050565b6060600060075467ffffffffffffffff811115611a8a57611a89612a51565b5b604051908082528060200260200182016040528015611ac357816020015b611ab0612259565b815260200190600190039081611aa85790505b5090506000805b6007548110156120ee57600060046000838152602001908152602001600020604051806101a00160405290816000820154815260200160018201548152602001600282018054611b1990613069565b80601f0160208091040260200160405190810160405280929190818152602001828054611b4590613069565b8015611b925780601f10611b6757610100808354040283529160200191611b92565b820191906000526020600020905b815481529060010190602001808311611b7557829003601f168201915b50505050508152602001600382018054611bab90613069565b80601f0160208091040260200160405190810160405280929190818152602001828054611bd790613069565b8015611c245780601f10611bf957610100808354040283529160200191611c24565b820191906000526020600020905b815481529060010190602001808311611c0757829003601f168201915b50505050508152602001600482018054611c3d90613069565b80601f0160208091040260200160405190810160405280929190818152602001828054611c6990613069565b8015611cb65780601f10611c8b57610100808354040283529160200191611cb6565b820191906000526020600020905b815481529060010190602001808311611c9957829003601f168201915b50505050508152602001600582018054611ccf90613069565b80601f0160208091040260200160405190810160405280929190818152602001828054611cfb90613069565b8015611d485780601f10611d1d57610100808354040283529160200191611d48565b820191906000526020600020905b815481529060010190602001808311611d2b57829003601f168201915b50505050508152602001600682018054611d6190613069565b80601f0160208091040260200160405190810160405280929190818152602001828054611d8d90613069565b8015611dda5780601f10611daf57610100808354040283529160200191611dda565b820191906000526020600020905b815481529060010190602001808311611dbd57829003601f168201915b505050505081526020016007820160009054906101000a900473ffffffffffffffffffffffffffffffffffffffff1673ffffffffffffffffffffffffffffffffffffffff1673ffffffffffffffffffffffffffffffffffffffff168152602001600882018054611e4990613069565b80601f0160208091040260200160405190810160405280929190818152602001828054611e7590613069565b8015611ec25780601f10611e9757610100808354040283529160200191611ec2565b820191906000526020600020905b815481529060010190602001808311611ea557829003601f168201915b50505050508152602001600982018054611edb90613069565b80601f0160208091040260200160405190810160405280929190818152602001828054611f0790613069565b8015611f545780601f10611f2957610100808354040283529160200191611f54565b820191906000526020600020905b815481529060010190602001808311611f3757829003601f168201915b50505050508152602001600a82018054611f6d90613069565b80601f0160208091040260200160405190810160405280929190818152602001828054611f9990613069565b8015611fe65780601f10611fbb57610100808354040283529160200191611fe6565b820191906000526020600020905b815481529060010190602001808311611fc957829003601f168201915b50505050508152602001600b82018054611fff90613069565b80601f016020809104026020016040519081016040528092919081815260200182805461202b90613069565b80156120785780601f1061204d57610100808354040283529160200191612078565b820191906000526020600020905b81548152906001019060200180831161205b57829003601f168201915b50505050508152602001600c82015481525050905086816101800151101580156120a757508581610180015111155b156120da57808484815181106120c0576120bf61309a565b5b602002602001018190525082806120d690612ff2565b9350505b5080806120e690612ff2565b915050611aca565b50819250505092915050565b60006107b284101561210b57600080fd5b600084905060008490506000849050600062253d8c60046064600c600e8761213391906133eb565b61213d91906134ae565b6113248861214b9190613518565b6121559190613518565b61215f91906134ae565b600361216b91906135ac565b61217591906134ae565b600c80600c600e8861218791906133eb565b61219191906134ae565b61219b91906135ac565b6002876121a891906133eb565b6121b291906133eb565b61016f6121bf91906135ac565b6121c991906134ae565b6004600c600e886121da91906133eb565b6121e491906134ae565b6112c0896121f29190613518565b6121fc9190613518565b6105b561220991906135ac565b61221391906134ae565b617d4b8661222191906133eb565b61222b9190613518565b6122359190613518565b61223f91906133eb565b61224991906133eb565b9050809450505050509392505050565b604051806101a0016040528060008152602001600081526020016060815260200160608152602001606081526020016060815260200160608152602001600073ffffffffffffffffffffffffffffffffffffffff16815260200160608152602001606081526020016060815260200160608152602001600081525090565b604051806080016040528060608152602001600073ffffffffffffffffffffffffffffffffffffffff16815260200160608152602001606081525090565b82805461232190613069565b90600052602060002090601f016020900481019282612343576000855561238a565b82601f1061235c57805160ff191683800117855561238a565b8280016001018555821561238a579182015b8281111561238957825182559160200191906001019061236e565b5b50905061239791906123bc565b5090565b60405180606001604052806000815260200160008152602001600081525090565b5b808211156123d55760008160009055506001016123bd565b5090565b6000604051905090565b600080fd5b600080fd5b6000819050919050565b612400816123ed565b811461240b57600080fd5b50565b60008135905061241d816123f7565b92915050565b600060208284031215612439576124386123e3565b5b60006124478482850161240e565b91505092915050565b612459816123ed565b82525050565b60006020820190506124746000830184612450565b92915050565b600081519050919050565b600082825260208201905092915050565b6000819050602082019050919050565b6124af816123ed565b82525050565b600081519050919050565b600082825260208201905092915050565b60005b838110156124ef5780820151818401526020810190506124d4565b838111156124fe576000848401525b50505050565b6000601f19601f8301169050919050565b6000612520826124b5565b61252a81856124c0565b935061253a8185602086016124d1565b61254381612504565b840191505092915050565b600073ffffffffffffffffffffffffffffffffffffffff82169050919050565b60006125798261254e565b9050919050565b6125898161256e565b82525050565b60006101a0830160008301516125a860008601826124a6565b5060208301516125bb60208601826124a6565b50604083015184820360408601526125d38282612515565b915050606083015184820360608601526125ed8282612515565b915050608083015184820360808601526126078282612515565b91505060a083015184820360a08601526126218282612515565b91505060c083015184820360c086015261263b8282612515565b91505060e083015161265060e0860182612580565b5061010083015184820361010086015261266a8282612515565b9150506101208301518482036101208601526126868282612515565b9150506101408301518482036101408601526126a28282612515565b9150506101608301518482036101608601526126be8282612515565b9150506101808301516126d56101808601826124a6565b508091505092915050565b60006126ec838361258f565b905092915050565b6000602082019050919050565b600061270c8261247a565b6127168185612485565b93508360208202850161272885612496565b8060005b85811015612764578484038952815161274585826126e0565b9450612750836126f4565b925060208a0199505060018101905061272c565b50829750879550505050505092915050565b600060208201905081810360008301526127908184612701565b905092915050565b6000819050919050565b60006127bd6127b86127b38461254e565b612798565b61254e565b9050919050565b60006127cf826127a2565b9050919050565b60006127e1826127c4565b9050919050565b6127f1816127d6565b82525050565b600060208201905061280c60008301846127e8565b92915050565b600081519050919050565b600082825260208201905092915050565b6000819050602082019050919050565b6000608083016000830151848203600086015261285b8282612515565b91505060208301516128706020860182612580565b50604083015184820360408601526128888282612515565b915050606083015184820360608601526128a28282612515565b9150508091505092915050565b60006128bb838361283e565b905092915050565b6000602082019050919050565b60006128db82612812565b6128e5818561281d565b9350836020820285016128f78561282e565b8060005b85811015612933578484038952815161291485826128af565b945061291f836128c3565b925060208a019950506001810190506128fb565b50829750879550505050505092915050565b6000602082019050818103600083015261295f81846128d0565b905092915050565b60008060008060008060c08789031215612984576129836123e3565b5b600061299289828a0161240e565b96505060206129a389828a0161240e565b95505060406129b489828a0161240e565b94505060606129c589828a0161240e565b93505060806129d689828a0161240e565b92505060a06129e789828a0161240e565b9150509295509295509295565b600080600060608486031215612a0d57612a0c6123e3565b5b6000612a1b8682870161240e565b9350506020612a2c8682870161240e565b9250506040612a3d8682870161240e565b9150509250925092565b600080fd5b600080fd5b7f4e487b7100000000000000000000000000000000000000000000000000000000600052604160045260246000fd5b612a8982612504565b810181811067ffffffffffffffff82111715612aa857612aa7612a51565b5b80604052505050565b6000612abb6123d9565b9050612ac78282612a80565b919050565b600067ffffffffffffffff821115612ae757612ae6612a51565b5b612af082612504565b9050602081019050919050565b82818337600083830152505050565b6000612b1f612b1a84612acc565b612ab1565b905082815260208101848484011115612b3b57612b3a612a4c565b5b612b46848285612afd565b509392505050565b600082601f830112612b6357612b62612a47565b5b8135612b73848260208601612b0c565b91505092915050565b612b858161256e565b8114612b9057600080fd5b50565b600081359050612ba281612b7c565b92915050565b60008060008060808587031215612bc257612bc16123e3565b5b600085013567ffffffffffffffff811115612be057612bdf6123e8565b5b612bec87828801612b4e565b9450506020612bfd87828801612b93565b935050604085013567ffffffffffffffff811115612c1e57612c1d6123e8565b5b612c2a87828801612b4e565b925050606085013567ffffffffffffffff811115612c4b57612c4a6123e8565b5b612c5787828801612b4e565b91505092959194509250565b60008060008060008060008060008060006101608c8e031215612c8957612c886123e3565b5b6000612c978e828f0161240e565b9b50506020612ca88e828f0161240e565b9a505060408c013567ffffffffffffffff811115612cc957612cc86123e8565b5b612cd58e828f01612b4e565b99505060608c013567ffffffffffffffff811115612cf657612cf56123e8565b5b612d028e828f01612b4e565b98505060808c013567ffffffffffffffff811115612d2357612d226123e8565b5b612d2f8e828f01612b4e565b97505060a08c013567ffffffffffffffff811115612d5057612d4f6123e8565b5b612d5c8e828f01612b4e565b96505060c08c013567ffffffffffffffff811115612d7d57612d7c6123e8565b5b612d898e828f01612b4e565b95505060e08c013567ffffffffffffffff811115612daa57612da96123e8565b5b612db68e828f01612b4e565b9450506101008c013567ffffffffffffffff811115612dd857612dd76123e8565b5b612de48e828f01612b4e565b9350506101208c013567ffffffffffffffff811115612e0657612e056123e8565b5b612e128e828f01612b4e565b9250506101408c013567ffffffffffffffff811115612e3457612e336123e8565b5b612e408e828f01612b4e565b9150509295989b509295989b9093969950565b600081519050919050565b600082825260208201905092915050565b6000819050602082019050919050565b606082016000820151612e9560008501826124a6565b506020820151612ea860208501826124a6565b506040820151612ebb60408501826124a6565b50505050565b6000612ecd8383612e7f565b60608301905092915050565b6000602082019050919050565b6000612ef182612e53565b612efb8185612e5e565b9350612f0683612e6f565b8060005b83811015612f37578151612f1e8882612ec1565b9750612f2983612ed9565b925050600181019050612f0a565b5085935050505092915050565b60006020820190508181036000830152612f5e8184612ee6565b905092915050565b7f4e487b7100000000000000000000000000000000000000000000000000000000600052601160045260246000fd5b6000612fa0826123ed565b9150612fab836123ed565b925082821015612fbe57612fbd612f66565b5b828203905092915050565b6000612fd4826123ed565b915060008203612fe757612fe6612f66565b5b600182039050919050565b6000612ffd826123ed565b91507fffffffffffffffffffffffffffffffffffffffffffffffffffffffffffffffff820361302f5761302e612f66565b5b600182019050919050565b7f4e487b7100000000000000000000000000000000000000000000000000000000600052602260045260246000fd5b6000600282049050600182168061308157607f821691505b6020821081036130945761309361303a565b5b50919050565b7f4e487b7100000000000000000000000000000000000000000000000000000000600052603260045260246000fd5b6000819050919050565b6130dc816130c9565b81146130e757600080fd5b50565b6000815190506130f9816130d3565b92915050565b600060208284031215613115576131146123e3565b5b6000613123848285016130ea565b91505092915050565b613135816130c9565b82525050565b6131448161256e565b82525050565b600060408201905061315f600083018561312c565b61316c602083018461313b565b9392505050565b60008115159050919050565b61318881613173565b811461319357600080fd5b50565b6000815190506131a58161317f565b92915050565b6000602082840312156131c1576131c06123e3565b5b60006131cf84828501613196565b91505092915050565b600082825260208201905092915050565b7f43616c6c6572206973206e6f74206120526f6f6d205374616666202075736572600082015250565b600061321f6020836131d8565b915061322a826131e9565b602082019050919050565b6000602082019050818103600083015261324e81613212565b9050919050565b6000613260826124b5565b61326a81856131d8565b935061327a8185602086016124d1565b61328381612504565b840191505092915050565b6000610180820190506132a4600083018f612450565b81810360208301526132b6818e613255565b905081810360408301526132ca818d613255565b905081810360608301526132de818c613255565b905081810360808301526132f2818b613255565b905081810360a0830152613306818a613255565b905061331560c083018961313b565b81810360e08301526133278188613255565b905081810361010083015261333c8187613255565b90508181036101208301526133518186613255565b90508181036101408301526133668185613255565b9050613376610160830184612450565b9d9c50505050505050505050505050565b6000613392826123ed565b915061339d836123ed565b9250817fffffffffffffffffffffffffffffffffffffffffffffffffffffffffffffffff04831182151516156133d6576133d5612f66565b5b828202905092915050565b6000819050919050565b60006133f6826133e1565b9150613401836133e1565b9250827f80000000000000000000000000000000000000000000000000000000000000000182126000841215161561343c5761343b612f66565b5b827f7fffffffffffffffffffffffffffffffffffffffffffffffffffffffffffffff01821360008412161561347457613473612f66565b5b828203905092915050565b7f4e487b7100000000000000000000000000000000000000000000000000000000600052601260045260246000fd5b60006134b9826133e1565b91506134c4836133e1565b9250826134d4576134d361347f565b5b600160000383147f80000000000000000000000000000000000000000000000000000000000000008314161561350d5761350c612f66565b5b828205905092915050565b6000613523826133e1565b915061352e836133e1565b9250817f7fffffffffffffffffffffffffffffffffffffffffffffffffffffffffffffff0383136000831215161561356957613568612f66565b5b817f80000000000000000000000000000000000000000000000000000000000000000383126000831216156135a1576135a0612f66565b5b828201905092915050565b60006135b7826133e1565b91506135c2836133e1565b9250827f7fffffffffffffffffffffffffffffffffffffffffffffffffffffffffffffff048211600084136000841316161561360157613600612f66565b5b817f8000000000000000000000000000000000000000000000000000000000000000058312600084126000841316161561363e5761363d612f66565b5b827f8000000000000000000000000000000000000000000000000000000000000000058212600084136000841216161561367b5761367a612f66565b5b827f7fffffffffffffffffffffffffffffffffffffffffffffffffffffffffffffff05821260008412600084121616156136b8576136b7612f66565b5b82820290509291505056fea2646970667358221220040f0fdee945d754d7a63b2e9361e90d285baa4872a54d25aa49e7510426de6e64736f6c634300080d0033",
  "immutableReferences": {},
  "source": "// SPDX-License-Identifier: MIT\npragma solidity ^0.8.13;\nimport \"./UserControl.sol\";\nimport \"./BokkyPooBahsDateTimeLibrary.sol\";\ncontract EvidenceRoom {\n    address private owner;\n    uint public result;\n    uint public result1;\n    UserControl public accessRoom;\n\n\n   constructor(address _userControlAddress) {\n        accessRoom = UserControl(_userControlAddress);\n    }\n\n       modifier onlyRoom() {\n        require(accessRoom.hasRole(accessRoom.ROOM(), msg.sender), \"Caller is not a Room Staff  user\");\n        _;\n    }\n    struct evidenceLog {\n        uint caseID;\n        uint evidenceID;\n        string crimeDescription;\n        string evidenceType;\n        string crimeTime;\n        string officer;\n        string department;\n        address evidenceRoomOfficer;\n        string purpose;\n        string place;\n        string entryTime;\n        string exitTime;\n        uint creationTime;\n    }\n\n    struct inventor {\n        uint roomNumber;\n        uint crimeId;\n        uint evidenceCount;\n    }\n    \n    struct exitLog {\n        string name;\n        address wallet;\n        string time;\n        string crimeID;\n    }\n\n    event EvidenceLogged(uint caseID, uint indexed evidenceId, string crimeDescription, string evidenceType, string crimeTime, string officer, string department, address evidenceRoomOfficer, string purpose, string place, string entryTime, string exitTime, uint creationTime);\n    \n    mapping (uint => evidenceLog) internal evidenceLogs;\n    mapping (uint => inventor) internal inventories;\n    mapping (uint => exitLog) internal exitLogs;\n    uint public indexx = 0;\n    uint public inventoIndex = 0;\n    uint public exitIndex = 0;\n\n    function addEntryLog(uint _caseID, uint _evidenceID, string memory _crimeDescription, string memory _evidenceType, string memory _crimeTime, string memory _officer, string memory _department, string memory _purpose, string memory _place, string memory _entryTime, string memory _exitTime) public onlyRoom() {\n    evidenceLogs[indexx] = evidenceLog(_caseID, _evidenceID,_crimeDescription, _evidenceType, _crimeTime, _officer, _department, msg.sender, _purpose,  _place, _entryTime, _exitTime, block.timestamp);\n    indexx++;\n    emit EvidenceLogged(_caseID, _evidenceID, _crimeDescription, _evidenceType, _crimeTime, _officer, _department, msg.sender, _purpose, _place, _entryTime, _exitTime, block.timestamp);\n\n   \n}\n\n    function logsDate(uint year1, uint month1, uint day1, uint year, uint month, uint day) public {\n        result = BokkyPooBahsDateTimeLibrary.timestampFromDate(year1, month1, day1);\n        result1 = BokkyPooBahsDateTimeLibrary.timestampFromDate(year, month, day); \n    }\n\n    function getLogsByDate() public view returns (evidenceLog[] memory) {\n        return getLogsByDate(result, result1);\n    }\n    \n    function getLogsByDate(uint _startTimestamp, uint _endTimestamp) internal view returns (evidenceLog[] memory) {\n        // Array to store logs within the specified date range\n        evidenceLog[] memory logsInRange = new evidenceLog[](indexx);\n        uint logsCount = 0;\n\n        // Iterate through all logs\n        for (uint i = 0; i < indexx; i++) {\n            // Retrieve the log\n            evidenceLog memory log = evidenceLogs[i];\n\n            // Check if the log's timestamp is within the specified date range\n            if (log.creationTime >= _startTimestamp && log.creationTime <= _endTimestamp) {\n                // Add the log to the array of logs within the range\n                logsInRange[logsCount] = log;\n                logsCount++;\n            }\n        }\n\n        return logsInRange;\n    }\n\n    function logsByCrime(uint _crimeID) public view returns (evidenceLog[] memory) {\n    uint logsCount = 0;\n\n    // Count the logs that match the specified crime ID\n    for (uint i = 0; i < indexx; i++) {\n        if (evidenceLogs[i].caseID == _crimeID) {\n            logsCount++;\n        }\n    }\n\n    // Initialize the array with the exact size needed\n    evidenceLog[] memory logsForCrime = new evidenceLog[](logsCount);\n\n    // Iterate through all logs and populate the array with logs matching the specified crime ID\n    uint logsAdded = 0;\n    for (uint i = 0; i < indexx; i++) {\n        if (evidenceLogs[i].caseID == _crimeID) {\n            logsForCrime[logsAdded] = evidenceLogs[i];\n            logsAdded++;\n        }\n    }\n\n    return logsForCrime;\n}\n\n    function Inventory(uint _roomNumber, uint _crimeID, uint _evidenceCount) public {\n        inventories[inventoIndex] = inventor(_roomNumber, _crimeID, _evidenceCount);\n        inventoIndex++;\n    }\n\n    function deleteInventory(uint _crimeId) public {\n    for (uint i = 0; i < inventoIndex; i++) {\n        if (inventories[i].crimeId == _crimeId) {\n            // Delete the inventory by swapping it with the last inventory in the array\n            inventories[i] = inventories[inventoIndex - 1];\n            inventoIndex--;\n            break;\n        }\n    }\n}\n\n    function addExitLog(string memory _name, address _wallet, string memory _time, string memory _crimeID) public  {\n        exitLogs[exitIndex] = exitLog(_name, _wallet, _time, _crimeID);\n        exitIndex++;\n    }\n\n    function viewLogs() public view returns (evidenceLog[] memory) {\n        evidenceLog[] memory allLogs = new evidenceLog[](indexx);\n\n        for (uint i = 0; i < indexx; i++) {\n            allLogs[i] = evidenceLogs[i];\n        }\n\n        return allLogs;\n    }\n\n    function viewExitLogs() public view returns (exitLog[] memory) {\n    exitLog[] memory allExitLogs = new exitLog[](exitIndex);\n\n    for (uint i = 0; i < exitIndex; i++) {\n        allExitLogs[i] = exitLogs[i];\n    }\n\n    return allExitLogs;\n}\n\nfunction viewInventories() public view returns (inventor[] memory) {\n    inventor[] memory allInventories = new inventor[](inventoIndex);\n\n    for (uint i = 0; i < inventoIndex; i++) {\n        allInventories[i] = inventories[i];\n    }\n\n    return allInventories;\n}\n\n}",
  "sourcePath": "/Users/omarwael/Desktop/Final3/contracts/Room.sol",
  "compiler": {
    "name": "solc",
    "version": "0.8.13+commit.abaa5c0e.Emscripten.clang"
  },
  "schemaVersion": "3.4.16",
  "updatedAt": "2024-05-19T21:34:14.137Z",
  "networkType": "ethereum",
  "devdoc": {
    "kind": "dev",
    "methods": {},
    "version": 1
  },
  "userdoc": {
    "kind": "user",
    "methods": {},
    "version": 1
  }
}