{
  "contractName": "Forensic",
  "abi": [
    {
      "inputs": [
        {
          "internalType": "address",
          "name": "_userControlAddress",
          "type": "address"
        }
      ],
      "stateMutability": "nonpayable",
      "type": "constructor"
    },
    {
      "inputs": [],
      "name": "access",
      "outputs": [
        {
          "internalType": "contract UserControl",
          "name": "",
          "type": "address"
        }
      ],
      "stateMutability": "view",
      "type": "function",
      "constant": true
    },
    {
      "inputs": [
        {
          "internalType": "uint256",
          "name": "",
          "type": "uint256"
        },
        {
          "internalType": "uint256",
          "name": "",
          "type": "uint256"
        }
      ],
      "name": "evidencesByCrimeId",
      "outputs": [
        {
          "internalType": "uint256",
          "name": "evidenceID",
          "type": "uint256"
        },
        {
          "internalType": "uint256",
          "name": "crimeID",
          "type": "uint256"
        },
        {
          "internalType": "string",
          "name": "crimeDescription",
          "type": "string"
        },
        {
          "internalType": "string",
          "name": "evidenceType",
          "type": "string"
        },
        {
          "internalType": "string",
          "name": "location",
          "type": "string"
        },
        {
          "internalType": "string",
          "name": "time",
          "type": "string"
        },
        {
          "internalType": "string",
          "name": "officerName",
          "type": "string"
        }
      ],
      "stateMutability": "view",
      "type": "function",
      "constant": true
    },
    {
      "inputs": [
        {
          "internalType": "uint256",
          "name": "crimeID",
          "type": "uint256"
        },
        {
          "internalType": "uint256",
          "name": "evidenceID",
          "type": "uint256"
        },
        {
          "internalType": "string",
          "name": "crimeDescription",
          "type": "string"
        },
        {
          "internalType": "string",
          "name": "evidenceType",
          "type": "string"
        },
        {
          "internalType": "string",
          "name": "location",
          "type": "string"
        },
        {
          "internalType": "string",
          "name": "time",
          "type": "string"
        },
        {
          "internalType": "string",
          "name": "officerName",
          "type": "string"
        }
      ],
      "name": "addEvidence",
      "outputs": [],
      "stateMutability": "nonpayable",
      "type": "function"
    },
    {
      "inputs": [
        {
          "internalType": "uint256",
          "name": "_crimeID",
          "type": "uint256"
        }
      ],
      "name": "getEvidenceByCrimeId",
      "outputs": [
        {
          "internalType": "uint256[]",
          "name": "",
          "type": "uint256[]"
        },
        {
          "internalType": "string[]",
          "name": "",
          "type": "string[]"
        },
        {
          "internalType": "string[]",
          "name": "",
          "type": "string[]"
        },
        {
          "internalType": "string[]",
          "name": "",
          "type": "string[]"
        },
        {
          "internalType": "string[]",
          "name": "",
          "type": "string[]"
        },
        {
          "internalType": "string[]",
          "name": "",
          "type": "string[]"
        }
      ],
      "stateMutability": "view",
      "type": "function",
      "constant": true
    }
  ],
  "bytecode": "0x60806040523480156200001157600080fd5b50604051620018c6380380620018c68339818101604052810190620000379190620000e8565b806000806101000a81548173ffffffffffffffffffffffffffffffffffffffff021916908373ffffffffffffffffffffffffffffffffffffffff160217905550506200011a565b600080fd5b600073ffffffffffffffffffffffffffffffffffffffff82169050919050565b6000620000b08262000083565b9050919050565b620000c281620000a3565b8114620000ce57600080fd5b50565b600081519050620000e281620000b7565b92915050565b6000602082840312156200010157620001006200007e565b5b60006200011184828501620000d1565b91505092915050565b61179c806200012a6000396000f3fe608060405234801561001057600080fd5b506004361061004c5760003560e01c806302c543351461005157806371907f171461006d57806399a6ea5b1461008b578063fa3e8eff146100c1575b600080fd5b61006b60048036038101906100669190610f20565b6100f6565b005b61007561037e565b60405161008291906110cd565b60405180910390f35b6100a560048036038101906100a091906110e8565b6103a2565b6040516100b897969594939291906111bf565b60405180910390f35b6100db60048036038101906100d69190611251565b6106a9565b6040516100ed96959493929190611448565b60405180910390f35b60008054906101000a900473ffffffffffffffffffffffffffffffffffffffff1673ffffffffffffffffffffffffffffffffffffffff166391d1485460008054906101000a900473ffffffffffffffffffffffffffffffffffffffff1673ffffffffffffffffffffffffffffffffffffffff16635322f3a46040518163ffffffff1660e01b8152600401602060405180830381865afa15801561019d573d6000803e3d6000fd5b505050506040513d601f19601f820116820180604052508101906101c19190611509565b336040518363ffffffff1660e01b81526004016101df929190611566565b602060405180830381865afa1580156101fc573d6000803e3d6000fd5b505050506040513d601f19601f8201168201806040525081019061022091906115c7565b61025f576040517f08c379a000000000000000000000000000000000000000000000000000000000815260040161025690611640565b60405180910390fd5b600160008881526020019081526020016000206040518060e00160405280888152602001898152602001878152602001868152602001858152602001848152602001838152509080600181540180825580915050600190039060005260206000209060070201600090919091909150600082015181600001556020820151816001015560408201518160020190805190602001906102fe929190610ced565b50606082015181600301908051906020019061031b929190610ced565b506080820151816004019080519060200190610338929190610ced565b5060a0820151816005019080519060200190610355929190610ced565b5060c0820151816006019080519060200190610372929190610ced565b50505050505050505050565b60008054906101000a900473ffffffffffffffffffffffffffffffffffffffff1681565b600160205281600052604060002081815481106103be57600080fd5b9060005260206000209060070201600091509150508060000154908060010154908060020180546103ee9061168f565b80601f016020809104026020016040519081016040528092919081815260200182805461041a9061168f565b80156104675780601f1061043c57610100808354040283529160200191610467565b820191906000526020600020905b81548152906001019060200180831161044a57829003601f168201915b50505050509080600301805461047c9061168f565b80601f01602080910402602001604051908101604052809291908181526020018280546104a89061168f565b80156104f55780601f106104ca576101008083540402835291602001916104f5565b820191906000526020600020905b8154815290600101906020018083116104d857829003601f168201915b50505050509080600401805461050a9061168f565b80601f01602080910402602001604051908101604052809291908181526020018280546105369061168f565b80156105835780601f1061055857610100808354040283529160200191610583565b820191906000526020600020905b81548152906001019060200180831161056657829003601f168201915b5050505050908060050180546105989061168f565b80601f01602080910402602001604051908101604052809291908181526020018280546105c49061168f565b80156106115780601f106105e657610100808354040283529160200191610611565b820191906000526020600020905b8154815290600101906020018083116105f457829003601f168201915b5050505050908060060180546106269061168f565b80601f01602080910402602001604051908101604052809291908181526020018280546106529061168f565b801561069f5780601f106106745761010080835404028352916020019161069f565b820191906000526020600020905b81548152906001019060200180831161068257829003601f168201915b5050505050905087565b606080606080606080600060016000898152602001908152602001600020905060008180549050905060008167ffffffffffffffff8111156106ee576106ed610df5565b5b60405190808252806020026020018201604052801561071c5781602001602082028036833780820191505090505b50905060008267ffffffffffffffff81111561073b5761073a610df5565b5b60405190808252806020026020018201604052801561076e57816020015b60608152602001906001900390816107595790505b50905060008367ffffffffffffffff81111561078d5761078c610df5565b5b6040519080825280602002602001820160405280156107c057816020015b60608152602001906001900390816107ab5790505b50905060008467ffffffffffffffff8111156107df576107de610df5565b5b60405190808252806020026020018201604052801561081257816020015b60608152602001906001900390816107fd5790505b50905060008567ffffffffffffffff81111561083157610830610df5565b5b60405190808252806020026020018201604052801561086457816020015b606081526020019060019003908161084f5790505b50905060008667ffffffffffffffff81111561088357610882610df5565b5b6040519080825280602002602001820160405280156108b657816020015b60608152602001906001900390816108a15790505b50905060005b87811015610cc95760008982815481106108d9576108d86116c0565b5b90600052602060002090600702016040518060e001604052908160008201548152602001600182015481526020016002820180546109169061168f565b80601f01602080910402602001604051908101604052809291908181526020018280546109429061168f565b801561098f5780601f106109645761010080835404028352916020019161098f565b820191906000526020600020905b81548152906001019060200180831161097257829003601f168201915b505050505081526020016003820180546109a89061168f565b80601f01602080910402602001604051908101604052809291908181526020018280546109d49061168f565b8015610a215780601f106109f657610100808354040283529160200191610a21565b820191906000526020600020905b815481529060010190602001808311610a0457829003601f168201915b50505050508152602001600482018054610a3a9061168f565b80601f0160208091040260200160405190810160405280929190818152602001828054610a669061168f565b8015610ab35780601f10610a8857610100808354040283529160200191610ab3565b820191906000526020600020905b815481529060010190602001808311610a9657829003601f168201915b50505050508152602001600582018054610acc9061168f565b80601f0160208091040260200160405190810160405280929190818152602001828054610af89061168f565b8015610b455780601f10610b1a57610100808354040283529160200191610b45565b820191906000526020600020905b815481529060010190602001808311610b2857829003601f168201915b50505050508152602001600682018054610b5e9061168f565b80601f0160208091040260200160405190810160405280929190818152602001828054610b8a9061168f565b8015610bd75780601f10610bac57610100808354040283529160200191610bd7565b820191906000526020600020905b815481529060010190602001808311610bba57829003601f168201915b50505050508152505090508060000151888381518110610bfa57610bf96116c0565b5b6020026020010181815250508060400151878381518110610c1e57610c1d6116c0565b5b60200260200101819052508060600151868381518110610c4157610c406116c0565b5b60200260200101819052508060800151858381518110610c6457610c636116c0565b5b60200260200101819052508060a00151848381518110610c8757610c866116c0565b5b60200260200101819052508060c00151838381518110610caa57610ca96116c0565b5b6020026020010181905250508080610cc19061171e565b9150506108bc565b508585858585859d509d509d509d509d509d50505050505050505091939550919395565b828054610cf99061168f565b90600052602060002090601f016020900481019282610d1b5760008555610d62565b82601f10610d3457805160ff1916838001178555610d62565b82800160010185558215610d62579182015b82811115610d61578251825591602001919060010190610d46565b5b509050610d6f9190610d73565b5090565b5b80821115610d8c576000816000905550600101610d74565b5090565b6000604051905090565b600080fd5b600080fd5b6000819050919050565b610db781610da4565b8114610dc257600080fd5b50565b600081359050610dd481610dae565b92915050565b600080fd5b600080fd5b6000601f19601f8301169050919050565b7f4e487b7100000000000000000000000000000000000000000000000000000000600052604160045260246000fd5b610e2d82610de4565b810181811067ffffffffffffffff82111715610e4c57610e4b610df5565b5b80604052505050565b6000610e5f610d90565b9050610e6b8282610e24565b919050565b600067ffffffffffffffff821115610e8b57610e8a610df5565b5b610e9482610de4565b9050602081019050919050565b82818337600083830152505050565b6000610ec3610ebe84610e70565b610e55565b905082815260208101848484011115610edf57610ede610ddf565b5b610eea848285610ea1565b509392505050565b600082601f830112610f0757610f06610dda565b5b8135610f17848260208601610eb0565b91505092915050565b600080600080600080600060e0888a031215610f3f57610f3e610d9a565b5b6000610f4d8a828b01610dc5565b9750506020610f5e8a828b01610dc5565b965050604088013567ffffffffffffffff811115610f7f57610f7e610d9f565b5b610f8b8a828b01610ef2565b955050606088013567ffffffffffffffff811115610fac57610fab610d9f565b5b610fb88a828b01610ef2565b945050608088013567ffffffffffffffff811115610fd957610fd8610d9f565b5b610fe58a828b01610ef2565b93505060a088013567ffffffffffffffff81111561100657611005610d9f565b5b6110128a828b01610ef2565b92505060c088013567ffffffffffffffff81111561103357611032610d9f565b5b61103f8a828b01610ef2565b91505092959891949750929550565b600073ffffffffffffffffffffffffffffffffffffffff82169050919050565b6000819050919050565b600061109361108e6110898461104e565b61106e565b61104e565b9050919050565b60006110a582611078565b9050919050565b60006110b78261109a565b9050919050565b6110c7816110ac565b82525050565b60006020820190506110e260008301846110be565b92915050565b600080604083850312156110ff576110fe610d9a565b5b600061110d85828601610dc5565b925050602061111e85828601610dc5565b9150509250929050565b61113181610da4565b82525050565b600081519050919050565b600082825260208201905092915050565b60005b83811015611171578082015181840152602081019050611156565b83811115611180576000848401525b50505050565b600061119182611137565b61119b8185611142565b93506111ab818560208601611153565b6111b481610de4565b840191505092915050565b600060e0820190506111d4600083018a611128565b6111e16020830189611128565b81810360408301526111f38188611186565b905081810360608301526112078187611186565b9050818103608083015261121b8186611186565b905081810360a083015261122f8185611186565b905081810360c08301526112438184611186565b905098975050505050505050565b60006020828403121561126757611266610d9a565b5b600061127584828501610dc5565b91505092915050565b600081519050919050565b600082825260208201905092915050565b6000819050602082019050919050565b6112b381610da4565b82525050565b60006112c583836112aa565b60208301905092915050565b6000602082019050919050565b60006112e98261127e565b6112f38185611289565b93506112fe8361129a565b8060005b8381101561132f57815161131688826112b9565b9750611321836112d1565b925050600181019050611302565b5085935050505092915050565b600081519050919050565b600082825260208201905092915050565b6000819050602082019050919050565b600082825260208201905092915050565b600061138482611137565b61138e8185611368565b935061139e818560208601611153565b6113a781610de4565b840191505092915050565b60006113be8383611379565b905092915050565b6000602082019050919050565b60006113de8261133c565b6113e88185611347565b9350836020820285016113fa85611358565b8060005b85811015611436578484038952815161141785826113b2565b9450611422836113c6565b925060208a019950506001810190506113fe565b50829750879550505050505092915050565b600060c082019050818103600083015261146281896112de565b9050818103602083015261147681886113d3565b9050818103604083015261148a81876113d3565b9050818103606083015261149e81866113d3565b905081810360808301526114b281856113d3565b905081810360a08301526114c681846113d3565b9050979650505050505050565b6000819050919050565b6114e6816114d3565b81146114f157600080fd5b50565b600081519050611503816114dd565b92915050565b60006020828403121561151f5761151e610d9a565b5b600061152d848285016114f4565b91505092915050565b61153f816114d3565b82525050565b60006115508261104e565b9050919050565b61156081611545565b82525050565b600060408201905061157b6000830185611536565b6115886020830184611557565b9392505050565b60008115159050919050565b6115a48161158f565b81146115af57600080fd5b50565b6000815190506115c18161159b565b92915050565b6000602082840312156115dd576115dc610d9a565b5b60006115eb848285016115b2565b91505092915050565b7f43616c6c6572206973206e6f74206120666f72656e7369632075736572000000600082015250565b600061162a601d83611142565b9150611635826115f4565b602082019050919050565b600060208201905081810360008301526116598161161d565b9050919050565b7f4e487b7100000000000000000000000000000000000000000000000000000000600052602260045260246000fd5b600060028204905060018216806116a757607f821691505b6020821081036116ba576116b9611660565b5b50919050565b7f4e487b7100000000000000000000000000000000000000000000000000000000600052603260045260246000fd5b7f4e487b7100000000000000000000000000000000000000000000000000000000600052601160045260246000fd5b600061172982610da4565b91507fffffffffffffffffffffffffffffffffffffffffffffffffffffffffffffffff820361175b5761175a6116ef565b5b60018201905091905056fea26469706673582212203ed64ab311bafd07d1760759e3f74d273e2266b53dbbfe28d0897920ccbc190264736f6c634300080d0033",
  "immutableReferences": {},
  "source": "// SPDX-License-Identifier: MIT\npragma solidity ^0.8.13;\n\nimport \"./UserControl.sol\";\n\ncontract Forensic {\n    UserControl public access;\n\n    constructor(address _userControlAddress) {\n        access = UserControl(_userControlAddress);\n    }\n\n    modifier onlyForensic() {\n        require(access.hasRole(access.FORENSIC(), msg.sender), \"Caller is not a forensic user\");\n        _;\n    }\n\n    struct Evidence {\n        uint evidenceID;\n        uint crimeID;\n        string crimeDescription;\n        string evidenceType;\n        string location;\n        string time;\n        string officerName;\n    }\n\n    mapping(uint => Evidence[]) public evidencesByCrimeId;\n\n    function addEvidence(uint crimeID, uint evidenceID, string memory crimeDescription, string memory evidenceType, string memory location, string memory time, string memory officerName) public onlyForensic() {\n        evidencesByCrimeId[crimeID].push(Evidence(evidenceID, crimeID, crimeDescription, evidenceType, location, time, officerName));\n    }\n\n    function getEvidenceByCrimeId(uint _crimeID) public view returns (uint[] memory, string[] memory, string[] memory, string[] memory, string[] memory, string[] memory) {\n        Evidence[] storage evidences = evidencesByCrimeId[_crimeID];\n        uint length = evidences.length;\n        uint[] memory evidenceIDs = new uint[](length);\n        string[] memory crimeDescriptions = new string[](length);\n        string[] memory evidenceTypes = new string[](length);\n        string[] memory locations = new string[](length);\n        string[] memory times = new string[](length);\n        string[] memory officerNames = new string[](length);\n        \n        for (uint i = 0; i < length; i++) {\n            Evidence memory evidence = evidences[i];\n            evidenceIDs[i] = evidence.evidenceID;\n            crimeDescriptions[i] = evidence.crimeDescription;\n            evidenceTypes[i] = evidence.evidenceType;\n            locations[i] = evidence.location;\n            times[i] = evidence.time;\n            officerNames[i] = evidence.officerName;\n        }\n        \n        return (evidenceIDs, crimeDescriptions, evidenceTypes, locations, times, officerNames);\n    }\n}",
  "sourcePath": "/Users/omarwael/Desktop/Final3/contracts/Forensic.sol",
  "compiler": {
    "name": "solc",
    "version": "0.8.13+commit.abaa5c0e.Emscripten.clang"
  },
  "schemaVersion": "3.4.16",
  "updatedAt": "2024-05-19T21:34:14.127Z",
  "networkType": "ethereum",
  "devdoc": {
    "kind": "dev",
    "methods": {},
    "version": 1
  },
  "userdoc": {
    "kind": "user",
    "methods": {},
    "version": 1
  }
}