{
  "contractName": "Police",
  "abi": [
    {
      "inputs": [
        {
          "internalType": "address",
          "name": "_userControlAddress",
          "type": "address"
        }
      ],
      "stateMutability": "nonpayable",
      "type": "constructor"
    },
    {
      "anonymous": false,
      "inputs": [
        {
          "indexed": false,
          "internalType": "uint256",
          "name": "evidenceID",
          "type": "uint256"
        },
        {
          "indexed": false,
          "internalType": "uint256",
          "name": "crimeID",
          "type": "uint256"
        },
        {
          "indexed": false,
          "internalType": "string",
          "name": "action",
          "type": "string"
        },
        {
          "indexed": false,
          "internalType": "string",
          "name": "source",
          "type": "string"
        },
        {
          "indexed": false,
          "internalType": "string",
          "name": "destination",
          "type": "string"
        },
        {
          "indexed": false,
          "internalType": "string",
          "name": "datetime",
          "type": "string"
        }
      ],
      "name": "LogAdded",
      "type": "event"
    },
    {
      "inputs": [],
      "name": "access",
      "outputs": [
        {
          "internalType": "contract UserControl",
          "name": "",
          "type": "address"
        }
      ],
      "stateMutability": "view",
      "type": "function",
      "constant": true
    },
    {
      "inputs": [
        {
          "internalType": "uint256",
          "name": "",
          "type": "uint256"
        }
      ],
      "name": "logs",
      "outputs": [
        {
          "internalType": "uint256",
          "name": "evidenceID",
          "type": "uint256"
        },
        {
          "internalType": "uint256",
          "name": "crimeID",
          "type": "uint256"
        },
        {
          "internalType": "string",
          "name": "action",
          "type": "string"
        },
        {
          "internalType": "string",
          "name": "source",
          "type": "string"
        },
        {
          "internalType": "string",
          "name": "destination",
          "type": "string"
        },
        {
          "internalType": "string",
          "name": "datetime",
          "type": "string"
        }
      ],
      "stateMutability": "view",
      "type": "function",
      "constant": true
    },
    {
      "inputs": [
        {
          "internalType": "uint256",
          "name": "_evidenceID",
          "type": "uint256"
        },
        {
          "internalType": "uint256",
          "name": "_crimeID",
          "type": "uint256"
        },
        {
          "internalType": "string",
          "name": "_action",
          "type": "string"
        },
        {
          "internalType": "string",
          "name": "_source",
          "type": "string"
        },
        {
          "internalType": "string",
          "name": "_destination",
          "type": "string"
        },
        {
          "internalType": "string",
          "name": "_datetime",
          "type": "string"
        }
      ],
      "name": "policeLog",
      "outputs": [],
      "stateMutability": "nonpayable",
      "type": "function"
    },
    {
      "inputs": [],
      "name": "viewLogs",
      "outputs": [
        {
          "components": [
            {
              "internalType": "uint256",
              "name": "evidenceID",
              "type": "uint256"
            },
            {
              "internalType": "uint256",
              "name": "crimeID",
              "type": "uint256"
            },
            {
              "internalType": "string",
              "name": "action",
              "type": "string"
            },
            {
              "internalType": "string",
              "name": "source",
              "type": "string"
            },
            {
              "internalType": "string",
              "name": "destination",
              "type": "string"
            },
            {
              "internalType": "string",
              "name": "datetime",
              "type": "string"
            }
          ],
          "internalType": "struct Police.Log[]",
          "name": "",
          "type": "tuple[]"
        }
      ],
      "stateMutability": "view",
      "type": "function",
      "constant": true
    }
  ],
  "bytecode": "0x60806040523480156200001157600080fd5b50604051620012f0380380620012f08339818101604052810190620000379190620000e8565b806000806101000a81548173ffffffffffffffffffffffffffffffffffffffff021916908373ffffffffffffffffffffffffffffffffffffffff160217905550506200011a565b600080fd5b600073ffffffffffffffffffffffffffffffffffffffff82169050919050565b6000620000b08262000083565b9050919050565b620000c281620000a3565b8114620000ce57600080fd5b50565b600081519050620000e281620000b7565b92915050565b6000602082840312156200010157620001006200007e565b5b60006200011184828501620000d1565b91505092915050565b6111c6806200012a6000396000f3fe608060405234801561001057600080fd5b506004361061004c5760003560e01c80636f90d9bb1461005157806371907f171461006d57806398b63bc81461008b578063e79899bd146100a9575b600080fd5b61006b60048036038101906100669190610af0565b6100de565b005b610075610372565b6040516100829190610c6c565b60405180910390f35b610093610396565b6040516100a09190610e7e565b60405180910390f35b6100c360048036038101906100be9190610ea0565b610651565b6040516100d596959493929190610f26565b60405180910390f35b60008054906101000a900473ffffffffffffffffffffffffffffffffffffffff1673ffffffffffffffffffffffffffffffffffffffff166391d1485460008054906101000a900473ffffffffffffffffffffffffffffffffffffffff1673ffffffffffffffffffffffffffffffffffffffff16639ca95a1e6040518163ffffffff1660e01b8152600401602060405180830381865afa158015610185573d6000803e3d6000fd5b505050506040513d601f19601f820116820180604052508101906101a99190610fd9565b336040518363ffffffff1660e01b81526004016101c7929190611036565b602060405180830381865afa1580156101e4573d6000803e3d6000fd5b505050506040513d601f19601f820116820180604052508101906102089190611097565b610247576040517f08c379a000000000000000000000000000000000000000000000000000000000815260040161023e90611110565b60405180910390fd5b60016040518060c00160405280888152602001878152602001868152602001858152602001848152602001838152509080600181540180825580915050600190039060005260206000209060060201600090919091909150600082015181600001556020820151816001015560408201518160020190805190602001906102cf9291906108bd565b5060608201518160030190805190602001906102ec9291906108bd565b5060808201518160040190805190602001906103099291906108bd565b5060a08201518160050190805190602001906103269291906108bd565b5050507f45280f2ceeceedfea4959ff03e3a8218184080f1edde17554a6f9b0f8014eb2786868686868660405161036296959493929190610f26565b60405180910390a1505050505050565b60008054906101000a900473ffffffffffffffffffffffffffffffffffffffff1681565b60606001805480602002602001604051908101604052809291908181526020016000905b8282101561064857838290600052602060002090600602016040518060c001604052908160008201548152602001600182015481526020016002820180546104019061115f565b80601f016020809104026020016040519081016040528092919081815260200182805461042d9061115f565b801561047a5780601f1061044f5761010080835404028352916020019161047a565b820191906000526020600020905b81548152906001019060200180831161045d57829003601f168201915b505050505081526020016003820180546104939061115f565b80601f01602080910402602001604051908101604052809291908181526020018280546104bf9061115f565b801561050c5780601f106104e15761010080835404028352916020019161050c565b820191906000526020600020905b8154815290600101906020018083116104ef57829003601f168201915b505050505081526020016004820180546105259061115f565b80601f01602080910402602001604051908101604052809291908181526020018280546105519061115f565b801561059e5780601f106105735761010080835404028352916020019161059e565b820191906000526020600020905b81548152906001019060200180831161058157829003601f168201915b505050505081526020016005820180546105b79061115f565b80601f01602080910402602001604051908101604052809291908181526020018280546105e39061115f565b80156106305780601f1061060557610100808354040283529160200191610630565b820191906000526020600020905b81548152906001019060200180831161061357829003601f168201915b505050505081525050815260200190600101906103ba565b50505050905090565b6001818154811061066157600080fd5b90600052602060002090600602016000915090508060000154908060010154908060020180546106909061115f565b80601f01602080910402602001604051908101604052809291908181526020018280546106bc9061115f565b80156107095780601f106106de57610100808354040283529160200191610709565b820191906000526020600020905b8154815290600101906020018083116106ec57829003601f168201915b50505050509080600301805461071e9061115f565b80601f016020809104026020016040519081016040528092919081815260200182805461074a9061115f565b80156107975780601f1061076c57610100808354040283529160200191610797565b820191906000526020600020905b81548152906001019060200180831161077a57829003601f168201915b5050505050908060040180546107ac9061115f565b80601f01602080910402602001604051908101604052809291908181526020018280546107d89061115f565b80156108255780601f106107fa57610100808354040283529160200191610825565b820191906000526020600020905b81548152906001019060200180831161080857829003601f168201915b50505050509080600501805461083a9061115f565b80601f01602080910402602001604051908101604052809291908181526020018280546108669061115f565b80156108b35780601f10610888576101008083540402835291602001916108b3565b820191906000526020600020905b81548152906001019060200180831161089657829003601f168201915b5050505050905086565b8280546108c99061115f565b90600052602060002090601f0160209004810192826108eb5760008555610932565b82601f1061090457805160ff1916838001178555610932565b82800160010185558215610932579182015b82811115610931578251825591602001919060010190610916565b5b50905061093f9190610943565b5090565b5b8082111561095c576000816000905550600101610944565b5090565b6000604051905090565b600080fd5b600080fd5b6000819050919050565b61098781610974565b811461099257600080fd5b50565b6000813590506109a48161097e565b92915050565b600080fd5b600080fd5b6000601f19601f8301169050919050565b7f4e487b7100000000000000000000000000000000000000000000000000000000600052604160045260246000fd5b6109fd826109b4565b810181811067ffffffffffffffff82111715610a1c57610a1b6109c5565b5b80604052505050565b6000610a2f610960565b9050610a3b82826109f4565b919050565b600067ffffffffffffffff821115610a5b57610a5a6109c5565b5b610a64826109b4565b9050602081019050919050565b82818337600083830152505050565b6000610a93610a8e84610a40565b610a25565b905082815260208101848484011115610aaf57610aae6109af565b5b610aba848285610a71565b509392505050565b600082601f830112610ad757610ad66109aa565b5b8135610ae7848260208601610a80565b91505092915050565b60008060008060008060c08789031215610b0d57610b0c61096a565b5b6000610b1b89828a01610995565b9650506020610b2c89828a01610995565b955050604087013567ffffffffffffffff811115610b4d57610b4c61096f565b5b610b5989828a01610ac2565b945050606087013567ffffffffffffffff811115610b7a57610b7961096f565b5b610b8689828a01610ac2565b935050608087013567ffffffffffffffff811115610ba757610ba661096f565b5b610bb389828a01610ac2565b92505060a087013567ffffffffffffffff811115610bd457610bd361096f565b5b610be089828a01610ac2565b9150509295509295509295565b600073ffffffffffffffffffffffffffffffffffffffff82169050919050565b6000819050919050565b6000610c32610c2d610c2884610bed565b610c0d565b610bed565b9050919050565b6000610c4482610c17565b9050919050565b6000610c5682610c39565b9050919050565b610c6681610c4b565b82525050565b6000602082019050610c816000830184610c5d565b92915050565b600081519050919050565b600082825260208201905092915050565b6000819050602082019050919050565b610cbc81610974565b82525050565b600081519050919050565b600082825260208201905092915050565b60005b83811015610cfc578082015181840152602081019050610ce1565b83811115610d0b576000848401525b50505050565b6000610d1c82610cc2565b610d268185610ccd565b9350610d36818560208601610cde565b610d3f816109b4565b840191505092915050565b600060c083016000830151610d626000860182610cb3565b506020830151610d756020860182610cb3565b5060408301518482036040860152610d8d8282610d11565b91505060608301518482036060860152610da78282610d11565b91505060808301518482036080860152610dc18282610d11565b91505060a083015184820360a0860152610ddb8282610d11565b9150508091505092915050565b6000610df48383610d4a565b905092915050565b6000602082019050919050565b6000610e1482610c87565b610e1e8185610c92565b935083602082028501610e3085610ca3565b8060005b85811015610e6c5784840389528151610e4d8582610de8565b9450610e5883610dfc565b925060208a01995050600181019050610e34565b50829750879550505050505092915050565b60006020820190508181036000830152610e988184610e09565b905092915050565b600060208284031215610eb657610eb561096a565b5b6000610ec484828501610995565b91505092915050565b610ed681610974565b82525050565b600082825260208201905092915050565b6000610ef882610cc2565b610f028185610edc565b9350610f12818560208601610cde565b610f1b816109b4565b840191505092915050565b600060c082019050610f3b6000830189610ecd565b610f486020830188610ecd565b8181036040830152610f5a8187610eed565b90508181036060830152610f6e8186610eed565b90508181036080830152610f828185610eed565b905081810360a0830152610f968184610eed565b9050979650505050505050565b6000819050919050565b610fb681610fa3565b8114610fc157600080fd5b50565b600081519050610fd381610fad565b92915050565b600060208284031215610fef57610fee61096a565b5b6000610ffd84828501610fc4565b91505092915050565b61100f81610fa3565b82525050565b600061102082610bed565b9050919050565b61103081611015565b82525050565b600060408201905061104b6000830185611006565b6110586020830184611027565b9392505050565b60008115159050919050565b6110748161105f565b811461107f57600080fd5b50565b6000815190506110918161106b565b92915050565b6000602082840312156110ad576110ac61096a565b5b60006110bb84828501611082565b91505092915050565b7f43616c6c6572206973206e6f74206120706f6c69636520757365720000000000600082015250565b60006110fa601b83610edc565b9150611105826110c4565b602082019050919050565b60006020820190508181036000830152611129816110ed565b9050919050565b7f4e487b7100000000000000000000000000000000000000000000000000000000600052602260045260246000fd5b6000600282049050600182168061117757607f821691505b60208210810361118a57611189611130565b5b5091905056fea26469706673582212201be0052d9fd1541b0762ee7aeaf60f9369006b7a0b361cbda7f308ad5c98383b64736f6c634300080d0033",
  "immutableReferences": {},
  "source": "// SPDX-License-Identifier: MIT \npragma solidity ^0.8.13;\nimport'./UserControl.sol';\n\ncontract Police {\n    UserControl public access;\n\n    struct Log {\n        uint evidenceID;\n        uint crimeID;\n        string action;\n        string source;\n        string destination;\n        string datetime;\n    }\n\n    Log[] public logs;\n\n    constructor( address _userControlAddress) {\n        access = UserControl(_userControlAddress);\n    }\n\n    event LogAdded(uint evidenceID, uint crimeID, string action, string source, string destination, string datetime);\n\n    modifier onlyPolice() {\n        require(access.hasRole(access.POLICE(), msg.sender), \"Caller is not a police user\");\n        _;\n    }\n\n    function policeLog(uint _evidenceID, uint _crimeID, string memory _action, string memory _source, string memory _destination, string memory _datetime) public onlyPolice {\n        logs.push(Log(_evidenceID, _crimeID, _action, _source, _destination, _datetime));\n        emit LogAdded(_evidenceID, _crimeID, _action, _source, _destination, _datetime);\n    }\n\n    function viewLogs() public view returns (Log[] memory) {\n        return logs;\n    }\n}",
  "sourcePath": "/Users/omarwael/Desktop/Final3/contracts/Police.sol",
  "compiler": {
    "name": "solc",
    "version": "0.8.13+commit.abaa5c0e.Emscripten.clang"
  },
  "schemaVersion": "3.4.16",
  "updatedAt": "2024-05-19T21:34:14.143Z",
  "networkType": "ethereum",
  "devdoc": {
    "kind": "dev",
    "methods": {},
    "version": 1
  },
  "userdoc": {
    "kind": "user",
    "methods": {},
    "version": 1
  }
}