{
  "contractName": "UserControl",
  "abi": [
    {
      "inputs": [],
      "stateMutability": "nonpayable",
      "type": "constructor"
    },
    {
      "anonymous": false,
      "inputs": [
        {
          "indexed": true,
          "internalType": "bytes32",
          "name": "role",
          "type": "bytes32"
        },
        {
          "indexed": true,
          "internalType": "bytes32",
          "name": "previousAdminRole",
          "type": "bytes32"
        },
        {
          "indexed": true,
          "internalType": "bytes32",
          "name": "newAdminRole",
          "type": "bytes32"
        }
      ],
      "name": "RoleAdminChanged",
      "type": "event"
    },
    {
      "anonymous": false,
      "inputs": [
        {
          "indexed": true,
          "internalType": "bytes32",
          "name": "role",
          "type": "bytes32"
        },
        {
          "indexed": true,
          "internalType": "address",
          "name": "account",
          "type": "address"
        },
        {
          "indexed": true,
          "internalType": "address",
          "name": "sender",
          "type": "address"
        }
      ],
      "name": "RoleGranted",
      "type": "event"
    },
    {
      "anonymous": false,
      "inputs": [
        {
          "indexed": true,
          "internalType": "bytes32",
          "name": "role",
          "type": "bytes32"
        },
        {
          "indexed": true,
          "internalType": "address",
          "name": "account",
          "type": "address"
        },
        {
          "indexed": true,
          "internalType": "address",
          "name": "sender",
          "type": "address"
        }
      ],
      "name": "RoleRevoked",
      "type": "event"
    },
    {
      "inputs": [],
      "name": "ADMIN",
      "outputs": [
        {
          "internalType": "bytes32",
          "name": "",
          "type": "bytes32"
        }
      ],
      "stateMutability": "view",
      "type": "function",
      "constant": true
    },
    {
      "inputs": [],
      "name": "DEFAULT_ADMIN_ROLE",
      "outputs": [
        {
          "internalType": "bytes32",
          "name": "",
          "type": "bytes32"
        }
      ],
      "stateMutability": "view",
      "type": "function",
      "constant": true
    },
    {
      "inputs": [],
      "name": "FORENSIC",
      "outputs": [
        {
          "internalType": "bytes32",
          "name": "",
          "type": "bytes32"
        }
      ],
      "stateMutability": "view",
      "type": "function",
      "constant": true
    },
    {
      "inputs": [],
      "name": "POLICE",
      "outputs": [
        {
          "internalType": "bytes32",
          "name": "",
          "type": "bytes32"
        }
      ],
      "stateMutability": "view",
      "type": "function",
      "constant": true
    },
    {
      "inputs": [],
      "name": "ROOM",
      "outputs": [
        {
          "internalType": "bytes32",
          "name": "",
          "type": "bytes32"
        }
      ],
      "stateMutability": "view",
      "type": "function",
      "constant": true
    },
    {
      "inputs": [],
      "name": "adminAddress",
      "outputs": [
        {
          "internalType": "address",
          "name": "",
          "type": "address"
        }
      ],
      "stateMutability": "view",
      "type": "function",
      "constant": true
    },
    {
      "inputs": [
        {
          "internalType": "bytes32",
          "name": "role",
          "type": "bytes32"
        }
      ],
      "name": "getRoleAdmin",
      "outputs": [
        {
          "internalType": "bytes32",
          "name": "",
          "type": "bytes32"
        }
      ],
      "stateMutability": "view",
      "type": "function",
      "constant": true
    },
    {
      "inputs": [
        {
          "internalType": "bytes32",
          "name": "role",
          "type": "bytes32"
        },
        {
          "internalType": "address",
          "name": "account",
          "type": "address"
        }
      ],
      "name": "grantRole",
      "outputs": [],
      "stateMutability": "nonpayable",
      "type": "function"
    },
    {
      "inputs": [
        {
          "internalType": "bytes32",
          "name": "role",
          "type": "bytes32"
        },
        {
          "internalType": "address",
          "name": "account",
          "type": "address"
        }
      ],
      "name": "hasRole",
      "outputs": [
        {
          "internalType": "bool",
          "name": "",
          "type": "bool"
        }
      ],
      "stateMutability": "view",
      "type": "function",
      "constant": true
    },
    {
      "inputs": [
        {
          "internalType": "bytes32",
          "name": "role",
          "type": "bytes32"
        },
        {
          "internalType": "address",
          "name": "account",
          "type": "address"
        }
      ],
      "name": "renounceRole",
      "outputs": [],
      "stateMutability": "nonpayable",
      "type": "function"
    },
    {
      "inputs": [
        {
          "internalType": "bytes32",
          "name": "role",
          "type": "bytes32"
        },
        {
          "internalType": "address",
          "name": "account",
          "type": "address"
        }
      ],
      "name": "revokeRole",
      "outputs": [],
      "stateMutability": "nonpayable",
      "type": "function"
    },
    {
      "inputs": [
        {
          "internalType": "bytes4",
          "name": "interfaceId",
          "type": "bytes4"
        }
      ],
      "name": "supportsInterface",
      "outputs": [
        {
          "internalType": "bool",
          "name": "",
          "type": "bool"
        }
      ],
      "stateMutability": "view",
      "type": "function",
      "constant": true
    },
    {
      "inputs": [
        {
          "internalType": "address",
          "name": "",
          "type": "address"
        }
      ],
      "name": "users",
      "outputs": [
        {
          "internalType": "string",
          "name": "name",
          "type": "string"
        },
        {
          "internalType": "address",
          "name": "walletAddress",
          "type": "address"
        },
        {
          "internalType": "string",
          "name": "password",
          "type": "string"
        },
        {
          "internalType": "string",
          "name": "role",
          "type": "string"
        }
      ],
      "stateMutability": "view",
      "type": "function",
      "constant": true
    },
    {
      "inputs": [
        {
          "internalType": "string",
          "name": "_name",
          "type": "string"
        },
        {
          "internalType": "address",
          "name": "_walletAddress",
          "type": "address"
        },
        {
          "internalType": "string",
          "name": "_password",
          "type": "string"
        },
        {
          "internalType": "string",
          "name": "_role",
          "type": "string"
        }
      ],
      "name": "registerUser",
      "outputs": [],
      "stateMutability": "nonpayable",
      "type": "function"
    },
    {
      "inputs": [
        {
          "internalType": "address",
          "name": "_walletAddress",
          "type": "address"
        }
      ],
      "name": "getUserDetails",
      "outputs": [
        {
          "internalType": "string",
          "name": "",
          "type": "string"
        },
        {
          "internalType": "string",
          "name": "",
          "type": "string"
        }
      ],
      "stateMutability": "view",
      "type": "function",
      "constant": true
    },
    {
      "inputs": [
        {
          "internalType": "address",
          "name": "_walletAddress",
          "type": "address"
        },
        {
          "internalType": "string",
          "name": "_password",
          "type": "string"
        }
      ],
      "name": "login",
      "outputs": [
        {
          "internalType": "string",
          "name": "",
          "type": "string"
        }
      ],
      "stateMutability": "view",
      "type": "function",
      "constant": true
    }
  ],
  "bytecode": "0x608060405234801561001057600080fd5b5033600260006101000a81548173ffffffffffffffffffffffffffffffffffffffff021916908373ffffffffffffffffffffffffffffffffffffffff16021790555061253b806100616000396000f3fe608060405234801561001057600080fd5b50600436106101005760003560e01c80635345cf7811610097578063a87430ba11610066578063a87430ba146102af578063cc3d967b146102e2578063d547741f14610313578063fc6f94681461032f57610100565b80635345cf781461022757806391d14854146102435780639ca95a1e14610273578063a217fddf1461029157610100565b80632f2ff15d116100d35780632f2ff15d146101b357806336568abe146101cf5780635322f3a4146101eb578063533530411461020957610100565b806301ffc9a714610105578063248a9ca3146101355780632a0acc6a146101655780632f19d50b14610183575b600080fd5b61011f600480360381019061011a91906119ee565b61034d565b60405161012c9190611a36565b60405180910390f35b61014f600480360381019061014a9190611a87565b6103c7565b60405161015c9190611ac3565b60405180910390f35b61016d6103e6565b60405161017a9190611ac3565b60405180910390f35b61019d60048036038101906101989190611c82565b61040a565b6040516101aa9190611d66565b60405180910390f35b6101cd60048036038101906101c89190611d88565b61080c565b005b6101e960048036038101906101e49190611d88565b61082d565b005b6101f36108b0565b6040516102009190611ac3565b60405180910390f35b6102116108d4565b60405161021e9190611ac3565b60405180910390f35b610241600480360381019061023c9190611dc8565b6108f8565b005b61025d60048036038101906102589190611d88565b610da4565b60405161026a9190611a36565b60405180910390f35b61027b610e0e565b6040516102889190611ac3565b60405180910390f35b610299610e32565b6040516102a69190611ac3565b60405180910390f35b6102c960048036038101906102c49190611e83565b610e39565b6040516102d99493929190611ebf565b60405180910390f35b6102fc60048036038101906102f79190611e83565b611021565b60405161030a929190611f19565b60405180910390f35b61032d60048036038101906103289190611d88565b611363565b005b610337611384565b6040516103449190611f50565b60405180910390f35b60007f7965db0b000000000000000000000000000000000000000000000000000000007bffffffffffffffffffffffffffffffffffffffffffffffffffffffff1916827bffffffffffffffffffffffffffffffffffffffffffffffffffffffff191614806103c057506103bf826113aa565b5b9050919050565b6000806000838152602001908152602001600020600101549050919050565b7fa729ef4e25027bc652fc8b5c4d1d902947361fa7c8e7b4905e877823f27331b381565b6060600073ffffffffffffffffffffffffffffffffffffffff16600160008573ffffffffffffffffffffffffffffffffffffffff1673ffffffffffffffffffffffffffffffffffffffff16815260200190815260200160002060010160009054906101000a900473ffffffffffffffffffffffffffffffffffffffff1673ffffffffffffffffffffffffffffffffffffffff16036104dd576040517f08c379a00000000000000000000000000000000000000000000000000000000081526004016104d490611fb7565b60405180910390fd5b6000600160008573ffffffffffffffffffffffffffffffffffffffff1673ffffffffffffffffffffffffffffffffffffffff16815260200190815260200160002060405180608001604052908160008201805461053990612006565b80601f016020809104026020016040519081016040528092919081815260200182805461056590612006565b80156105b25780601f10610587576101008083540402835291602001916105b2565b820191906000526020600020905b81548152906001019060200180831161059557829003601f168201915b505050505081526020016001820160009054906101000a900473ffffffffffffffffffffffffffffffffffffffff1673ffffffffffffffffffffffffffffffffffffffff1673ffffffffffffffffffffffffffffffffffffffff16815260200160028201805461062190612006565b80601f016020809104026020016040519081016040528092919081815260200182805461064d90612006565b801561069a5780601f1061066f5761010080835404028352916020019161069a565b820191906000526020600020905b81548152906001019060200180831161067d57829003601f168201915b505050505081526020016003820180546106b390612006565b80601f01602080910402602001604051908101604052809291908181526020018280546106df90612006565b801561072c5780601f106107015761010080835404028352916020019161072c565b820191906000526020600020905b81548152906001019060200180831161070f57829003601f168201915b5050505050815250509050826040516020016107489190612073565b6040516020818303038152906040528051906020012081604001516040516020016107739190612073565b60405160208183030381529060405280519060200120036107cc576040518060400160405280601081526020017f4c6f67696e207375636365737366756c00000000000000000000000000000000815250915050610806565b6040518060400160405280601d81526020017f496e636f72726563742070617373776f7264206f7220416464726573730000008152509150505b92915050565b610815826103c7565b61081e81611414565b6108288383611428565b505050565b610835611508565b73ffffffffffffffffffffffffffffffffffffffff168173ffffffffffffffffffffffffffffffffffffffff16146108a2576040517f08c379a0000000000000000000000000000000000000000000000000000000008152600401610899906120fc565b60405180910390fd5b6108ac8282611510565b5050565b7fac93258f220ff5d75a7093c8c8e6806fb544e403d18e97a817dabc92212fe53d81565b7fc8ce9a28ed12cf7168ca22ced430bdffc86e98745f5d06c667ab56c00470a30a81565b600260009054906101000a900473ffffffffffffffffffffffffffffffffffffffff1673ffffffffffffffffffffffffffffffffffffffff163373ffffffffffffffffffffffffffffffffffffffff1614610988576040517f08c379a000000000000000000000000000000000000000000000000000000000815260040161097f9061218e565b60405180910390fd5b600073ffffffffffffffffffffffffffffffffffffffff16600160008573ffffffffffffffffffffffffffffffffffffffff1673ffffffffffffffffffffffffffffffffffffffff16815260200190815260200160002060010160009054906101000a900473ffffffffffffffffffffffffffffffffffffffff1673ffffffffffffffffffffffffffffffffffffffff1614610a59576040517f08c379a0000000000000000000000000000000000000000000000000000000008152600401610a50906121fa565b60405180910390fd5b60405180608001604052808581526020018473ffffffffffffffffffffffffffffffffffffffff16815260200183815260200182815250600160008573ffffffffffffffffffffffffffffffffffffffff1673ffffffffffffffffffffffffffffffffffffffff1681526020019081526020016000206000820151816000019080519060200190610aeb9291906118df565b5060208201518160010160006101000a81548173ffffffffffffffffffffffffffffffffffffffff021916908373ffffffffffffffffffffffffffffffffffffffff1602179055506040820151816002019080519060200190610b4f9291906118df565b506060820151816003019080519060200190610b6c9291906118df565b509050507fa729ef4e25027bc652fc8b5c4d1d902947361fa7c8e7b4905e877823f27331b381604051602001610ba29190612073565b6040516020818303038152906040528051906020012003610bec57610be77fa729ef4e25027bc652fc8b5c4d1d902947361fa7c8e7b4905e877823f27331b384611428565b610d9e565b7fac93258f220ff5d75a7093c8c8e6806fb544e403d18e97a817dabc92212fe53d81604051602001610c1e9190612073565b6040516020818303038152906040528051906020012003610c6857610c637fac93258f220ff5d75a7093c8c8e6806fb544e403d18e97a817dabc92212fe53d84611428565b610d9d565b7fc8ce9a28ed12cf7168ca22ced430bdffc86e98745f5d06c667ab56c00470a30a81604051602001610c9a9190612073565b6040516020818303038152906040528051906020012003610ce457610cdf7fc8ce9a28ed12cf7168ca22ced430bdffc86e98745f5d06c667ab56c00470a30a84611428565b610d9c565b7fe419ba2484d9efb5ea120ea8d8b86dc666551db29ed65e4d8c975262e7a9c36581604051602001610d169190612073565b6040516020818303038152906040528051906020012003610d6057610d5b7fe419ba2484d9efb5ea120ea8d8b86dc666551db29ed65e4d8c975262e7a9c36584611428565b610d9b565b6040517f08c379a0000000000000000000000000000000000000000000000000000000008152600401610d9290612266565b60405180910390fd5b5b5b5b50505050565b600080600084815260200190815260200160002060000160008373ffffffffffffffffffffffffffffffffffffffff1673ffffffffffffffffffffffffffffffffffffffff16815260200190815260200160002060009054906101000a900460ff16905092915050565b7fe419ba2484d9efb5ea120ea8d8b86dc666551db29ed65e4d8c975262e7a9c36581565b6000801b81565b6001602052806000526040600020600091509050806000018054610e5c90612006565b80601f0160208091040260200160405190810160405280929190818152602001828054610e8890612006565b8015610ed55780601f10610eaa57610100808354040283529160200191610ed5565b820191906000526020600020905b815481529060010190602001808311610eb857829003601f168201915b5050505050908060010160009054906101000a900473ffffffffffffffffffffffffffffffffffffffff1690806002018054610f1090612006565b80601f0160208091040260200160405190810160405280929190818152602001828054610f3c90612006565b8015610f895780601f10610f5e57610100808354040283529160200191610f89565b820191906000526020600020905b815481529060010190602001808311610f6c57829003601f168201915b505050505090806003018054610f9e90612006565b80601f0160208091040260200160405190810160405280929190818152602001828054610fca90612006565b80156110175780601f10610fec57610100808354040283529160200191611017565b820191906000526020600020905b815481529060010190602001808311610ffa57829003601f168201915b5050505050905084565b606080600073ffffffffffffffffffffffffffffffffffffffff16600160008573ffffffffffffffffffffffffffffffffffffffff1673ffffffffffffffffffffffffffffffffffffffff16815260200190815260200160002060010160009054906101000a900473ffffffffffffffffffffffffffffffffffffffff1673ffffffffffffffffffffffffffffffffffffffff16036110f5576040517f08c379a00000000000000000000000000000000000000000000000000000000081526004016110ec90611fb7565b60405180910390fd5b6000600160008573ffffffffffffffffffffffffffffffffffffffff1673ffffffffffffffffffffffffffffffffffffffff16815260200190815260200160002060405180608001604052908160008201805461115190612006565b80601f016020809104026020016040519081016040528092919081815260200182805461117d90612006565b80156111ca5780601f1061119f576101008083540402835291602001916111ca565b820191906000526020600020905b8154815290600101906020018083116111ad57829003601f168201915b505050505081526020016001820160009054906101000a900473ffffffffffffffffffffffffffffffffffffffff1673ffffffffffffffffffffffffffffffffffffffff1673ffffffffffffffffffffffffffffffffffffffff16815260200160028201805461123990612006565b80601f016020809104026020016040519081016040528092919081815260200182805461126590612006565b80156112b25780601f10611287576101008083540402835291602001916112b2565b820191906000526020600020905b81548152906001019060200180831161129557829003601f168201915b505050505081526020016003820180546112cb90612006565b80601f01602080910402602001604051908101604052809291908181526020018280546112f790612006565b80156113445780601f1061131957610100808354040283529160200191611344565b820191906000526020600020905b81548152906001019060200180831161132757829003601f168201915b5050505050815250509050806000015181606001519250925050915091565b61136c826103c7565b61137581611414565b61137f8383611510565b505050565b600260009054906101000a900473ffffffffffffffffffffffffffffffffffffffff1681565b60007f01ffc9a7000000000000000000000000000000000000000000000000000000007bffffffffffffffffffffffffffffffffffffffffffffffffffffffff1916827bffffffffffffffffffffffffffffffffffffffffffffffffffffffff1916149050919050565b61142581611420611508565b6115f1565b50565b6114328282610da4565b61150457600160008084815260200190815260200160002060000160008373ffffffffffffffffffffffffffffffffffffffff1673ffffffffffffffffffffffffffffffffffffffff16815260200190815260200160002060006101000a81548160ff0219169083151502179055506114a9611508565b73ffffffffffffffffffffffffffffffffffffffff168173ffffffffffffffffffffffffffffffffffffffff16837f2f8788117e7eff1d82e926ec794901d17c78024a50270940304540a733656f0d60405160405180910390a45b5050565b600033905090565b61151a8282610da4565b156115ed57600080600084815260200190815260200160002060000160008373ffffffffffffffffffffffffffffffffffffffff1673ffffffffffffffffffffffffffffffffffffffff16815260200190815260200160002060006101000a81548160ff021916908315150217905550611592611508565b73ffffffffffffffffffffffffffffffffffffffff168173ffffffffffffffffffffffffffffffffffffffff16837ff6391f5c32d9c69d2a47ea670b442974b53935d1edc7fd64eb21e047a839171b60405160405180910390a45b5050565b6115fb8282610da4565b6116725761160881611676565b6116168360001c60206116a3565b60405160200161162792919061231e565b6040516020818303038152906040526040517f08c379a00000000000000000000000000000000000000000000000000000000081526004016116699190611d66565b60405180910390fd5b5050565b606061169c8273ffffffffffffffffffffffffffffffffffffffff16601460ff166116a3565b9050919050565b6060600060028360026116b69190612391565b6116c091906123eb565b67ffffffffffffffff8111156116d9576116d8611b57565b5b6040519080825280601f01601f19166020018201604052801561170b5781602001600182028036833780820191505090505b5090507f30000000000000000000000000000000000000000000000000000000000000008160008151811061174357611742612441565b5b60200101907effffffffffffffffffffffffffffffffffffffffffffffffffffffffffffff1916908160001a9053507f7800000000000000000000000000000000000000000000000000000000000000816001815181106117a7576117a6612441565b5b60200101907effffffffffffffffffffffffffffffffffffffffffffffffffffffffffffff1916908160001a905350600060018460026117e79190612391565b6117f191906123eb565b90505b6001811115611891577f3031323334353637383961626364656600000000000000000000000000000000600f86166010811061183357611832612441565b5b1a60f81b82828151811061184a57611849612441565b5b60200101907effffffffffffffffffffffffffffffffffffffffffffffffffffffffffffff1916908160001a905350600485901c94508061188a90612470565b90506117f4565b50600084146118d5576040517f08c379a00000000000000000000000000000000000000000000000000000000081526004016118cc906124e5565b60405180910390fd5b8091505092915050565b8280546118eb90612006565b90600052602060002090601f01602090048101928261190d5760008555611954565b82601f1061192657805160ff1916838001178555611954565b82800160010185558215611954579182015b82811115611953578251825591602001919060010190611938565b5b5090506119619190611965565b5090565b5b8082111561197e576000816000905550600101611966565b5090565b6000604051905090565b600080fd5b600080fd5b60007fffffffff0000000000000000000000000000000000000000000000000000000082169050919050565b6119cb81611996565b81146119d657600080fd5b50565b6000813590506119e8816119c2565b92915050565b600060208284031215611a0457611a0361198c565b5b6000611a12848285016119d9565b91505092915050565b60008115159050919050565b611a3081611a1b565b82525050565b6000602082019050611a4b6000830184611a27565b92915050565b6000819050919050565b611a6481611a51565b8114611a6f57600080fd5b50565b600081359050611a8181611a5b565b92915050565b600060208284031215611a9d57611a9c61198c565b5b6000611aab84828501611a72565b91505092915050565b611abd81611a51565b82525050565b6000602082019050611ad86000830184611ab4565b92915050565b600073ffffffffffffffffffffffffffffffffffffffff82169050919050565b6000611b0982611ade565b9050919050565b611b1981611afe565b8114611b2457600080fd5b50565b600081359050611b3681611b10565b92915050565b600080fd5b600080fd5b6000601f19601f8301169050919050565b7f4e487b7100000000000000000000000000000000000000000000000000000000600052604160045260246000fd5b611b8f82611b46565b810181811067ffffffffffffffff82111715611bae57611bad611b57565b5b80604052505050565b6000611bc1611982565b9050611bcd8282611b86565b919050565b600067ffffffffffffffff821115611bed57611bec611b57565b5b611bf682611b46565b9050602081019050919050565b82818337600083830152505050565b6000611c25611c2084611bd2565b611bb7565b905082815260208101848484011115611c4157611c40611b41565b5b611c4c848285611c03565b509392505050565b600082601f830112611c6957611c68611b3c565b5b8135611c79848260208601611c12565b91505092915050565b60008060408385031215611c9957611c9861198c565b5b6000611ca785828601611b27565b925050602083013567ffffffffffffffff811115611cc857611cc7611991565b5b611cd485828601611c54565b9150509250929050565b600081519050919050565b600082825260208201905092915050565b60005b83811015611d18578082015181840152602081019050611cfd565b83811115611d27576000848401525b50505050565b6000611d3882611cde565b611d428185611ce9565b9350611d52818560208601611cfa565b611d5b81611b46565b840191505092915050565b60006020820190508181036000830152611d808184611d2d565b905092915050565b60008060408385031215611d9f57611d9e61198c565b5b6000611dad85828601611a72565b9250506020611dbe85828601611b27565b9150509250929050565b60008060008060808587031215611de257611de161198c565b5b600085013567ffffffffffffffff811115611e0057611dff611991565b5b611e0c87828801611c54565b9450506020611e1d87828801611b27565b935050604085013567ffffffffffffffff811115611e3e57611e3d611991565b5b611e4a87828801611c54565b925050606085013567ffffffffffffffff811115611e6b57611e6a611991565b5b611e7787828801611c54565b91505092959194509250565b600060208284031215611e9957611e9861198c565b5b6000611ea784828501611b27565b91505092915050565b611eb981611afe565b82525050565b60006080820190508181036000830152611ed98187611d2d565b9050611ee86020830186611eb0565b8181036040830152611efa8185611d2d565b90508181036060830152611f0e8184611d2d565b905095945050505050565b60006040820190508181036000830152611f338185611d2d565b90508181036020830152611f478184611d2d565b90509392505050565b6000602082019050611f656000830184611eb0565b92915050565b7f55736572206e6f7420666f756e64000000000000000000000000000000000000600082015250565b6000611fa1600e83611ce9565b9150611fac82611f6b565b602082019050919050565b60006020820190508181036000830152611fd081611f94565b9050919050565b7f4e487b7100000000000000000000000000000000000000000000000000000000600052602260045260246000fd5b6000600282049050600182168061201e57607f821691505b60208210810361203157612030611fd7565b5b50919050565b600081905092915050565b600061204d82611cde565b6120578185612037565b9350612067818560208601611cfa565b80840191505092915050565b600061207f8284612042565b915081905092915050565b7f416363657373436f6e74726f6c3a2063616e206f6e6c792072656e6f756e636560008201527f20726f6c657320666f722073656c660000000000000000000000000000000000602082015250565b60006120e6602f83611ce9565b91506120f18261208a565b604082019050919050565b60006020820190508181036000830152612115816120d9565b9050919050565b7f4f6e6c792061646d696e2063616e2063616c6c20746869732066756e6374696f60008201527f6e00000000000000000000000000000000000000000000000000000000000000602082015250565b6000612178602183611ce9565b91506121838261211c565b604082019050919050565b600060208201905081810360008301526121a78161216b565b9050919050565b7f5573657220616c72656164792072656769737465726564000000000000000000600082015250565b60006121e4601783611ce9565b91506121ef826121ae565b602082019050919050565b60006020820190508181036000830152612213816121d7565b9050919050565b7f496e76616c696420726f6c650000000000000000000000000000000000000000600082015250565b6000612250600c83611ce9565b915061225b8261221a565b602082019050919050565b6000602082019050818103600083015261227f81612243565b9050919050565b7f416363657373436f6e74726f6c3a206163636f756e7420000000000000000000600082015250565b60006122bc601783612037565b91506122c782612286565b601782019050919050565b7f206973206d697373696e6720726f6c6520000000000000000000000000000000600082015250565b6000612308601183612037565b9150612313826122d2565b601182019050919050565b6000612329826122af565b91506123358285612042565b9150612340826122fb565b915061234c8284612042565b91508190509392505050565b6000819050919050565b7f4e487b7100000000000000000000000000000000000000000000000000000000600052601160045260246000fd5b600061239c82612358565b91506123a783612358565b9250817fffffffffffffffffffffffffffffffffffffffffffffffffffffffffffffffff04831182151516156123e0576123df612362565b5b828202905092915050565b60006123f682612358565b915061240183612358565b9250827fffffffffffffffffffffffffffffffffffffffffffffffffffffffffffffffff0382111561243657612435612362565b5b828201905092915050565b7f4e487b7100000000000000000000000000000000000000000000000000000000600052603260045260246000fd5b600061247b82612358565b91506000820361248e5761248d612362565b5b600182039050919050565b7f537472696e67733a20686578206c656e67746820696e73756666696369656e74600082015250565b60006124cf602083611ce9565b91506124da82612499565b602082019050919050565b600060208201905081810360008301526124fe816124c2565b905091905056fea2646970667358221220cc8309dfdb4357171d71e9146f3d8f0d3e5c2742d6e65dcaa1d53faa27691e0964736f6c634300080d0033",
  "immutableReferences": {},
  "source": "// SPDX-License-Identifier: MIT\npragma solidity ^0.8.13;\nimport \"@openzeppelin/contracts/access/AccessControl.sol\";\n\ncontract UserControl is AccessControl {\n    struct UserData {\n        string name;\n        address walletAddress;\n        string password;\n        string role;\n    }\n\n    mapping(address => UserData) public users;\n\n    address public adminAddress;\n\n    // Make roles\n    bytes32 public constant ADMIN = keccak256(\"Admin\");\n    bytes32 public constant FORENSIC = keccak256(\"Forensic\");\n    bytes32 public constant ROOM = keccak256(\"Room\");\n    bytes32 public constant POLICE = keccak256(\"Police\");\n\n    constructor() {\n        adminAddress = msg.sender;\n    }\n\n    modifier onlyAdmin() {\n        require(msg.sender == adminAddress, \"Only admin can call this function\");\n        _;\n    }\n\n    function registerUser(string memory _name, address _walletAddress, string memory _password, string memory _role) public onlyAdmin {\n        require(users[_walletAddress].walletAddress == address(0), \"User already registered\");\n    \n        users[_walletAddress] = UserData({\n            name: _name,\n            walletAddress: _walletAddress,\n            password: _password,\n            role: _role\n        });\n\n        if (keccak256(abi.encodePacked(_role)) == ADMIN) {\n            _grantRole(ADMIN, _walletAddress);\n        } else if (keccak256(abi.encodePacked(_role)) == FORENSIC) {\n            _grantRole(FORENSIC, _walletAddress);\n        } else if (keccak256(abi.encodePacked(_role)) == ROOM) {\n            _grantRole(ROOM, _walletAddress);\n        } else if (keccak256(abi.encodePacked(_role)) == POLICE) {\n            _grantRole(POLICE, _walletAddress);\n        } else {\n            revert(\"Invalid role\");\n        }\n    }\n\n    function getUserDetails(address _walletAddress) public view returns (string memory, string memory) {\n        require(users[_walletAddress].walletAddress != address(0), \"User not found\");\n    \n        UserData memory user = users[_walletAddress];\n        return (user.name, user.role);\n    }\n\n    function login(address _walletAddress, string memory _password) public view returns (string memory) {\n    require(users[_walletAddress].walletAddress != address(0), \"User not found\");\n    \n    UserData memory user = users[_walletAddress];\n    if (keccak256(abi.encodePacked(user.password)) == keccak256(abi.encodePacked(_password))) {\n        return \"Login successful\";\n    } else {\n        return \"Incorrect password or Address\";\n    }\n}\n\n}\n\n\n\n   \n\n",
  "sourcePath": "/Users/omarwael/Desktop/Final3/contracts/UserControl.sol",
  "compiler": {
    "name": "solc",
    "version": "0.8.13+commit.abaa5c0e.Emscripten.clang"
  },
  "schemaVersion": "3.4.16",
  "updatedAt": "2024-05-19T21:34:14.123Z",
  "networkType": "ethereum",
  "devdoc": {
    "kind": "dev",
    "methods": {
      "getRoleAdmin(bytes32)": {
        "details": "Returns the admin role that controls `role`. See {grantRole} and {revokeRole}. To change a role's admin, use {_setRoleAdmin}."
      },
      "grantRole(bytes32,address)": {
        "details": "Grants `role` to `account`. If `account` had not been already granted `role`, emits a {RoleGranted} event. Requirements: - the caller must have ``role``'s admin role. May emit a {RoleGranted} event."
      },
      "hasRole(bytes32,address)": {
        "details": "Returns `true` if `account` has been granted `role`."
      },
      "renounceRole(bytes32,address)": {
        "details": "Revokes `role` from the calling account. Roles are often managed via {grantRole} and {revokeRole}: this function's purpose is to provide a mechanism for accounts to lose their privileges if they are compromised (such as when a trusted device is misplaced). If the calling account had been revoked `role`, emits a {RoleRevoked} event. Requirements: - the caller must be `account`. May emit a {RoleRevoked} event."
      },
      "revokeRole(bytes32,address)": {
        "details": "Revokes `role` from `account`. If `account` had been granted `role`, emits a {RoleRevoked} event. Requirements: - the caller must have ``role``'s admin role. May emit a {RoleRevoked} event."
      },
      "supportsInterface(bytes4)": {
        "details": "See {IERC165-supportsInterface}."
      }
    },
    "version": 1
  },
  "userdoc": {
    "kind": "user",
    "methods": {},
    "version": 1
  }
}